S00E00004E6F64655F322E73726563FF
S214080000F008002085040800810408008104080020
S214080010810408008104080081040800000000002C
S2140800200000000000000000000000008104080036
S214080030810408000000000081040800810408000C
S214080040810408008104080081040800810408006F
S214080050810408008104080081040800810408005F
S214080060210E080081040800000000008104080032
S214080070810408005D0708008104080000000000ED
S21408008000000000810408008104080081040800BC
S214080090810408008104080081040800810408001F
S2140800A0810408000000000081040800810408009C
S2140800B081040800810408008104080081040800FF
S2140800C081040800810408008104080081040800EF
S2140800D081040800810408008104080081040800DF
S2140800E08104080081040800810408006D030800E4
S2140800F08104080010B5054C237833B9044B13B1B6
S2140801000448AFF300800123237010BD3404002098
S21408011000000000B01508000C4B43B10C4810B5A1
S2140801200C49AFF300800C48036823B910BD0A4891
S214080130036833B97047094B002BF7D0BDE8104069
S2140801401847064B002BF5D0184700BF00000000E4
S214080150B015080038040020B0150800000000009C
S214080160F0B45718082FD4BF00230123082998BFD6
S214080170082A5CD80D46002B59D12E4A136823F05E
S2140801800103136013692C4B4FF440745C641C6FB6
S21408019024F003041C6703245C605C66A3F5006314
S2140801A0264CC3F80C41D3F8004144F40064C3F865
S2140801B000415061002419E01E4801F110035B015C
S2140801C0C2180026566000EB41124FF00056C2F8DF
S2140801D008624FF08076C650D2F81C3243F400030B
S2140801E0C2F81C3201238B401C430131B942E3DDBF
S2140801F000230DE00F4901EB43124FF00050C2F800
S214080200080203F1100252014FF040708850013383
S214080210AB42EFDB074B5C604FF40061084A516065
S2140802201A6842F001021A600020F0BC70470120EC
S214080230FBE700BF00400B40000E0E402B100010DE
S21408024000E100E008B502220121014B984708BDED
S214080250610108004B0103F1402303F53023D3F86E
S214080260103213F4000F36D003881C4A02EA834281
S21408027042F000524B0103F1402303F53023C3F844
S21408028008228378072B01D907238370827943795C
S2140802901B0443EA0263027943EA0223C278134343
S2140802A0490101F1402101F53021C1F81432827A62
S2140802B0437A1B0443EA0263027A43EA0223C279BA
S2140802C01343C1F8183283781B0443F40003C1F8BB
S2140802D01C32002070470120704700BF0000FC1F3A
S2140802E04B0103F1402303F53023D3F8103213F4FF
S2140802F0000F33D070B44B0103F1402303F53023CD
S214080300D3F81442D3F81822D3F80852C5F38A450E
S2140803100580D3F81052C5F303458570002303E023
S214080320C618F270120A0133AB4205DA032BF7DC63
S214080330C618F470240AF6E7094B01F110025201B8
S2140803404FF08070985003EB4111D1F81C3243F4FB
S2140803500003C1F81C32002070BC704701207047AB
S21408036000400B40004870476501290038B5344BFB
S2140803701C6914F0060F57D014F0020F08D114F0B9
S214080380040F48D002212F482F4B9847002347E0F8
S2140803902C4D012128462C4B98472B88052B1AD024
S2140803A0284B1B88062B1CD0032B1ED0254B1B88DE
S2140803B0012BEBD1254B1B78002BE7D0214DE87994
S2140803C0234B98476979E878224B9847AB79FBB175
S2140803D0214B9847DAE701221C4B1A701F4B9847A7
S2140803E0DEE70021194A1170DEE7184B1B78002B50
S2140803F0DCD0144D2879164B9847E878184B984760
S2140804006B7913B1144B9847D0E7164B9847CDE74E
S214080410144B9847BAE71448144B9847B6E7013385
S214080420084A92789342FADB14F0010F02D00122B0
S214080430034B9A604FF400620D4BC3F8842138BD15
S21408044000400B4070040020E10208005004002021
S2140804501D060800BD0908003D0A080091070800A7
S214080460490908004D0A0800F4140800710D080030
S21408047000E100E00022014B1A707047500400208B
S214080480FEE7000008B5114B114A9A4209D00F4BF7
S2140804900F4A03E011681960043304320D498B4291
S2140804A0F8D30D4B02E000221A6004330B4A93423D
S2140804B0F9D30B4B23F0604323F07F03094A93607C
S2140804C0094B9847094B9847FEE700BF00000020F5
S2140804D0B01508003404002034040020F00400207E
S2140804E00000080000ED00E0851308005D0A08001B
S2140804F04FF48063204A136002F5007213601F4BA6
S2140805001B6A13F0807F07D11D4A1C4B1A621B4BCF
S2140805109B6E13F0010FFAD01A4A184B1A62174B43
S2140805209B6E13F4803FFAD0144A136B23F0030330
S21408053043F001031363114B9B6E13F0080FFAD0B8
S214080540114A0E4B9A620D4B9B6E13F0020FFAD0AF
S21408055011220A4B1A63094B9B6E13F0080FFAD048
S2140805601222064B1A63054B9B6E13F0080FFAD03F
S214080570064A074B1A607047000A0E4000060E40EF
S2140805800908370009083701013F0D2000BD01059D
S2140805900000002010B4441ABDF80400C01A00FB7E
S2140805A004F0521A90FBF2F0184480B210BC704760
S2140805B0C822164B1A60164AD2F8003143F01003C8
S2140805C0C2F8003102F60442136843F400231360AD
S2140805D06C32136843F4002313600E4B0E4A1A60FD
S2140805E01A6842F034021A600B2203F5DE731A60AA
S2140805F042F2D0020C331A602022A3F52A731A603E
S21408060041F65A6203F528731A607047004009409D
S21408061000060E40E4400940004D575010B582B021
S2140806204FF4BD73009340F2723364220021044CE9
S214080630A047C0F503501030024B186002B010BD3A
S21408064095050800A442094038B504461D460160D1
S2140806501046064B984760602581BDF810306381C8
S21408066000232382A381E38138BD00BFF50F08006D
S21408067070B504468A1A95B2C58183892B4483814E
S214080680066828460A4B984731460A4B98470A4B4D
S214080690984780B262890A2393FBF2F2238AEB1A00
S2140806A003FB02F39BB22582184480B270BD00BFDC
S2140806B0FD0F0800A51008004513080010B582B005
S2140806C041B90021009141F29A036422064CA047E2
S2140806D002B010BD42F23413009341F29A0364222A
S2140806E00021014CA047F3E795050800104A4FF48F
S2140806F080331360536113660E490A6942F4005248
S2140807000A610D4A136001F544610A681A430A60D3
S2140807100A4A1360143213606421483A11606C3A2E
S2140807201360643213604FF40052054B1A6070472A
S21408073000120E4000060E40B0120E40C0120E40C8
S21408074000E100E0014B1878704700BF5404002011
S2140807500022014B1A7070475404002008B5074B56
S2140807601B6813F4803F02D1054B984708BD05481F
S214080770054B98470122054B1A70F5E74C120E40B8
S2140807807504080034150800710D0800540400208C
S2140807904FF49022014B1A60704700BF301A0E4083
S2140807A0014B1868704700BF381A0E40002302E055
S2140807B000BF01339BB28342FAD37047F8B50F4B9C
S2140807C005221A601A60C8200D4FB8470D4E3468C7
S2140807D064080D4D04232B60C820B8473368C3F35C
S2140807E0470301222A6043EA04231BB298B2002B6F
S2140807F000DBF8BD404280B2FBE700BF34140E4071
S214080800AD0708003C120E4030140E4010B5022406
S214080810034B1C601420034B9847034B1C6010BD09
S21408082034140E40AD07080030140E4008B5104AC0
S214080830104B1A60104A136843F4005313604FF4C1
S214080840FF7302F53F6213601432136040F20763C9
S21408085002F5F67213601032136040F20222074B5C
S2140808601A6040F2054204331A60054B984708BDE3
S2140808700D0000100C070E4010060E4030140E40F7
S2140808800D080800024B02221A8001229A7070474F
S2140808907C04002010B50B4B98470B4B984700B9C3
S2140808A010BD0A4B98470146094C606009480A4B38
S2140808B098470A486368C3700021094B9847094B54
S2140808C09847EDE7BD07080045070800A107080098
S2140808D0540400204C150800710D08007C04002004
S2140808E055020800510708000B4A0C4B1A600C4AC0
S2140808F0136843F04003136001220A4B1A600A4A41
S214080900E4331A604FF48032E03B1A600223074A49
S2140809101360143A13607047260000100C070E4048
S21408092000070E4000800C400043414424800C40E1
S214080930034B1860034B1B6B13F0020FFAD070477B
S21408094020800C4000800C4030B583B00546144B20
S2140809509847044642F2341300930023642219464B
S2140809602846104DA8470246251A21460E480F4B22
S2140809709847B0F5FA6F01D94FF4FA60002D07DDF5
S2140809804FF480620A4B1A600A4B984703B030BD92
S214080990002DF9DA4FF48062074B1A60F4E700BFBF
S2140809A0BD070800950508005C04002071060800CD
S2140809B034140E403109080030140E4070B5054650
S2140809C00E46114B98470446314628460F4B984723
S2140809D00246251A21460E480E4B9847B0F5FA6F80
S2140809E001D94FF4FA60002D06DD4FF480620A4BF9
S2140809F01A600A4B984770BD002DFADA4FF48062E9
S214080A00074B1A60F5E700BFBD070800BD060800DB
S214080A105C0400207106080034140E4031090800F2
S214080A2030140E404FF48023034A136010321360CC
S214080A3024321360704700BF00120E404FF4802225
S214080A40014B1A60704700BF34120E404FF48022E4
S214080A50014B1A60704700BF30120E4000B583B0D5
S214080A60114B9847114B9847114B9847114B98478D
S214080A70114B9847114B9847114B9847114B98477D
S214080A80114B9847002300930A2301224FF07C510C
S214080A900E480F4CA0470F4B98474FF400420E4B9A
S214080AA01A600E4B9847FCE7F1040800950D0800FD
S214080AB0B10508006503080045020800ED060800B1
S214080AC02D080800E9080800250A08005C0400202C
S214080AD04906080085080800541A0E4095080800BC
S214080AE008B5C8B2014B984708BD00BFFD0D080001
S214080AF02DE9F04107460E46151E02DD0A4600217E
S214080B0004E04FF020080EE001310132107800288A
S214080B10FAD1A94201DA6D1A00E0002513F0020F97
S214080B2006D14FF0200813F001040AD0002410E084
S214080B304FF03008F7E7414638460D4B98470134E2
S214080B40013D002DF7DC04E03846094B9847013490
S214080B50013631780029F7D105E041463846044B7E
S214080B6098470134013D002DF7DC2046BDE8F081AA
S214080B70E10A0800F0B585B007460C9851B11E4644
S214080B800C4613B10A2A12D0002604AD002305F835
S214080B90013D18E030238DF8043000238DF8053029
S214080BA00B9B0A9A01A938461B4CA04729E0002946
S214080BB001DB0026E9E74C420126E6E7303305F874
S214080BC0013DB4FBF2F44CB1B4FBF2F302FB134361
S214080BD0092BF3DDA0F13A010B44EFE756B10A9B67
S214080BE01BB10B9B13F0020F0DD12D2305F8013C0A
S214080BF0013D00260B9B0A9A29463846064CA04714
S214080C00304405B0F0BD2D213846044B98470A9B62
S214080C10013B0A93EEE700BFF10A0800E10A080064
S214080C20F0B589B006460C460592002581E0A21C60
S214080C3001238BE0013443F002032278302AF9D0EE
S214080C40002206E002EB82025000A1F130020244C4
S214080C5001342178A1F13000C0B20928F2D97329ED
S214080C6018D0642922D078292FD058293CD0752945
S214080C7049D063295CD10599081D059009788DF837
S214080C801C1000218DF81D1007A93046344FB847B0
S214080C9005444DE00599081D0590096821B13046C0
S214080CA02F4FB847054443E02E49F8E70599081D35
S214080CB005900968612002900193009201230A2298
S214080CC03046294FB847054432E00599081D059077
S214080CD00968612002900193009200231022304692
S214080CE0214FB847054423E00599081D0590096873
S214080CF041200290019300920023102230461A4F9A
S214080D00B847054414E00599081D05900968612050
S214080D1002900193009200230A223046124FB847E9
S214080D20054405E0144621783046104B98470135AF
S214080D300134237863B1252BF5D1621C63783BB167
S214080D40252BEFD02D2B3FF472AF0023144674E703
S214080D5016B1336800221A70284609B0F0BD00BFE5
S214080D60F10A080060150800750B0800E10A08007B
S214080D700FB400B583B004AA52F8041B01920020F1
S214080D80034B984703B05DF804EB04B0704700BF08
S214080D90210C0800164B00221A705A70154B4FF497
S214080DA04071596459601A6F186F024022F44072F5
S214080DB01A6759664FF48072A3F500631A6103F543
S214080DC00073AC2119604FF47A7119624FF4006110
S214080DD0596040F20221C3F820114FF0FF31D96064
S214080DE0E121996004490A6050221A60704700BFE2
S214080DF088040020000E0E4000E100E0074B5B6907
S214080E0013F0020F08D0054BD861044B5B6913F446
S214080E10007FFAD0002070470120704700080E4077
S214080E2008B5154B5B6913F0E00F03D04FF4A871B3
S214080E30114A116013F0010F12D010484278531C63
S214080E40594203F03F0301F03F0158BF4B42017877
S214080E508B4206D00849886908490A4490704B7046
S214080E6008BD0748074B9847044B5978024A9269C9
S214080E700B449A7008BD00BF00080E408804002086
S214080E8068150800710D080080F0004002E000BFF9
S214080E9081F0004142001FBF5FEA410392EA030F58
S214080EA07FEA226C7FEA236C6AD04FEA1262D2EBA2
S214080EB01363C1BFD218414048404140B8BF5B42A7
S214080EC0192B88BF704710F0004F40F4000020F040
S214080ED07F4018BF404211F0004F41F4000121F056
S214080EE07F4118BF494292EA030F3FD0A2F10102A0
S214080EF041FA03FC10EB0C00C3F1200301FA03F1DE
S214080F0000F0004302D5494260EB4000B0F5000F00
S214080F1013D3B0F1807F06D340084FEA310102F1BF
S214080F200102FE2A51D2B1F1004F40EBC25008BF71
S214080F3020F0010040EA03007047490040EB00003B
S214080F4010F4000FA2F10102EDD1B0FA80FCACF16A
S214080F50080CB2EB0C0200FA0CF0AABF00EBC25069
S214080F6052421843BCBFD0401843704792F0000F57
S214080F7081F4000106BF80F400000132013BB5E7AA
S214080F804FEA41037FEA226C18BF7FEA236C21D020
S214080F9092EA030F04D092F0000F08BF0846704785
S214080FA090EA010F1CBF0020704712F07F4F04D153
S214080FB0400028BF40F00040704712F100723CBF66
S214080FC000F50000704700F0004343F0FE4040F490
S214080FD0000070477FEA226216BF08467FEA23634E
S214080FE00146420206BF5FEA412390EA010F40F439
S214080FF0800070474FF0000304E000BF10F0004385
S21408100048BF40425FEA000C08BF704743F096436B
S21408101001464FF000001CE050EA010208BF704786
S2140810204FF000030AE000BF50EA010208BF70470D
S21408103011F0004302D5404261EB41015FEA010C22
S21408104002BF84460146002043F0B64308BFA3F11A
S2140810508053A3F50003BCFA8CF2083AA3EBC253FC
S21408106010DB01FA02FC634400FA02FCC2F120021B
S214081070BCF1004F20FA02F243EB020008BF20F052
S2140810800100704702F1200201FA02FCC2F12002B8
S21408109050EA4C0021FA02F243EB020008BF20EAAD
S2140810A0DC7070474FF0FF0C1CEAD0521EBF1CEADB
S2140810B0D15392EA0C0F93EA0C0F6FD01A4480EAC9
S2140810C0010C400218BF5FEA41211ED04FF00063B2
S2140810D043EA501043EA5111A0FB01310CF00040DE
S2140810E0B1F5000F3EBF490041EAD3715B0040EA04
S2140810F0010062F17F02FD2A1DD8B3F1004F40EBD4
S214081100C25008BF20F00100704790F0000F0CF0A6
S214081110004C08BF49024CEA502040EA51207F3A6A
S214081120C2BFD2F1FF0340EAC250704740F4000045
S2140811304FF00003013A5DDC12F1190FDCBF00F036
S21408114000407047C2F10002410021FA02F1C2F1E4
S214081150200200FA02FC5FEA310040F1000053EA80
S2140811604C0308BF20EADC70704792F0000F00F0CE
S214081170004C02BF400010F4000F013AF9D040EAD4
S2140811800C0093F0000F01F0004C02BF490011F468
S214081190000F013BF9D041EA0C018FE70CEAD15366
S2140811A092EA0C0F18BF93EA0C0F0AD030F0004CE6
S2140811B018BF31F0004CD8D180EA010000F000409A
S2140811C0704790F0000F17BF90F0004F084691F058
S2140811D0000F91F0004F14D092EA0C0F01D1420292
S2140811E00FD193EA0C0F03D14B0218BF084608D15B
S2140811F080EA010000F0004040F0FE4040F40000A5
S214081200704740F0FE4040F4400070474FF0FF0C37
S2140812101CEAD0521EBF1CEAD15392EA0C0F93EA7E
S2140812200C0F69D0A2EB030280EA010C49024FEAD0
S214081230402037D04FF0805343EA111143EA101389
S2140812400CF000408B4238BF5B0042F17D024FF441
S214081250000C8B4224BF5B1A40EA0C00B3EB510F1C
S21408126024BFA3EB510340EA5C00B3EB910F24BF05
S214081270A3EB910340EA9C00B3EBD10F24BFA3EB8A
S214081280D10340EADC001B0118BF5FEA1C1CE0D152
S214081290FD2A3FF650AF8B4240EBC25008BF20F005
S2140812A0010070470CF0004C4CEA50207F32C2BF59
S2140812B0D2F1FF0340EAC250704740F400004FF0F6
S2140812C00003013A37E792F0000F00F0004C02BF27
S2140812D0400010F4000F013AF9D040EA0C0093F0F1
S2140812E0000F01F0004C02BF490011F4000F013B4B
S2140812F0F9D041EA0C0195E70CEAD15392EA0C0FB3
S21408130008D142027FF47DAF93EA0C0F7FF470AFEA
S214081310084676E793EA0C0F04D14B023FF44CAF2D
S21408132008466EE730F0004C18BF31F0004CCAD1C2
S21408133030F000427FF45CAF31F000437FF43CAFFE
S2140813405FE700BF42000ED2B2F1FE4F0BD34FF05C
S2140813509E03B3EB126209D44FEA002343F000431E
S21408136023FA02F070474FF00000704712F1610F41
S21408137001D1420202D14FF0FF3070474FF0000013
S214081380704700BF70B50F4E0F4D761BB61018BFCE
S214081390002405D0013455F8043B9847A642F9D1F5
S2140813A00A4E0B4D00F0F2F8761BB61018BF002454
S2140813B006D0013455F8043B9847A642F9D170BDCB
S2140813C070BD00BF9815080098150800A0150800FD
S2140813D098150800024B13B1024800F005B870478C
S2140813E000000000F5130800002301461A461846B8
S2140813F000F01EB838B50A4C0A4D641BA4100AD073
S21408140004F18043013B05EB8305013C55F804399C
S2140814109847002CF9D1BDE8384000F0C1B800BFA5
S214081420B0150800AC150800704700BF704700BF2D
S2140814302DE9F8432C4D0646286898460F469146EF
S214081440FFF7F2FF294B1C68D4F84831002B3ED032
S2140814505A681F2A1CDC02F1010E76B1012103EB43
S2140814608204C4F88890D3F8880191400843022E75
S214081470C3F88801C4F8088123D00232C3F804E010
S214081480286843F82270FFF7D1FF0020BDE8F883EC
S214081490174B0BB34FF4C870AFF300800346D8B1B0
S2140814A00020D4F848114FF0010E58601960024623
S2140814B0C4F84831C3F88801C3F88C01002EDCD084
S2140814C0CCE7D3F88C010143C3F88C11D5E704F5B3
S2140814D0A673C4F84831BBE72868FFF7A7FF4FF0A4
S2140814E0FF30BDE8F88300BF3004002088150800E8
S2140814F00000000043414E30206D657373616765D8
S214081500206172726976656420696E206E6F6E2D32
S21408151075736564206D61696C626F780A0D0000EA
S214081520536974756174696F6E3A202564200A0DD4
S21408153000000000696E74657272757074206361CD
S2140815407074757265640A0D00000000596F757234
S2140815502073636F72652069733A2025640A0D004C
S214081560286E756C6C2900004552523A2055415237
S2140815705420525820627566666572206973206624
S214081580756C6C0A0D00000008000020F8B500BF56
S214081590F8BC08BC9E467047D51308001901080019
S2140815A0F8B500BFF8BC08BC9E467047F5000800B2
S2140815B000093D000000000000000000F4020020C2
S2140815C05C030020C40300200000000000000000A8
S2140815D000000000000000000000000000000000FE
S2140815E000000000000000000000000000000000EE
S2140815F000000000000000000000000000000000DE
S21408160000000000000000000000000000000000CD
S21408161000000000000000000000000000000000BD
S21408162000000000000000000000000000000000AD
S214081630000000000000000000000000000000009D
S214081640000000000000000000000000000000008D
S214081650000000000000000000000000000000007D
S21408166001000000000000000E33CDAB34126DE61A
S214081670ECDE05000B000000000000000000000083
S214081680000000000000000000000000000000004D
S214081690000000000000000000000000000000003D
S2140816A0000000000000000000000000000000002D
S2140816B0000000000000000000000000000000001D
S2080819E0CC04002006
S804080000F3
