S00E000074696B746F6B2E7372656380
S11300000C94B4010C94D1010C94D1010C94D10141
S11300100C94D1010C94D1010C94D1010C94D10114
S11300200C94D1010C94D1010C94D1010C94D10104
S11300300C94D1010C94D1010C94D1010C94D101F4
S11300400C94D1010C94D1010C94D1010C94D101E4
S11300500C94D1010C94D1010C94D1010C94D101D4
S11300600C94D1010C94D1010C94D1010C94D101C4
S1130070000000000000000000065F5F06000000B2
S11300800007070007070000147F7F147F7F140018
S1130090242E6B6B3A120000466630180C66620020
S11300A0307A4F5D377A48000407030000000000EF
S11300B0001C3E63410000000041633E1C00000040
S11300C0082A3E1C1C3E2A0808083E3E0808000078
S11300D000A0E0600000000008080808080800000C
S11300E000006060000000006030180C060301008E
S11300F03E7F594D7F3E000042427F7F40400000DA
S1130100627359496F660000226349497F360000D3
S1130110181C16137F7F1000276745457D390000A2
S11301203C7E4B4979300000036371190F070000CE
S1130130367F49497F360000064F49693F1E00005B
S113014000006C6C0000000000A0EC6C00000000DB
S1130150081C366341000000141414141414000025
S1130160004163361C080000020351590F060000C9
S11301703E7F415D5D1F1E007C7E13137E7C00006C
S1130180417F7F49497F36001C3E63414163220021
S1130190417F7F41637F1C00417F7F495D41630054
S11301A0417F7F491D0103001C3E6341517372006E
S11301B07F7F08087F7F000000417F7F41000000AF
S11301C0307040417F3F0100417F7F081C7763000E
S11301D0417F7F41406070007F7F060C067F7F0077
S11301E07F7F060C187F7F001C3E6341633E1C002A
S11301F0417F7F49090F06001E3F21717F5E000089
S1130200417F7F19396F460026674D597B320000C4
S113021003417F7F410300007F7F40407F7F0000D8
S11302201F3F60603F1F00007F7F3018307F7F00DA
S113023063771C081C776300074F78784F0700002A
S11302406773594D47637100007F7F41410000008F
S11302500103060C183060000041417F7F0000005C
S1130260080C0603060C0800808080808080808053
S11302700000030704000000207454543C7840003C
S1130280413F7F44447C3800387C44446C2800005F
S1130290307848493F7F4000387C54545C18000053
S11302A0487E7F490302000098BCA4A4F87C0400A3
S11302B0417F7F08047C780000447D7D400000007D
S11302C040C484FD7D000000417F7F10386C4400F1
S11302D000417F7F400000007C7C0C180C7C78007F
S11302E07C7C04047C780000387C44447C38000026
S11302F084FCF8A4243C1800183C24A4F8FC8400D2
S1130300447C78441C180000485C54547424000055
S113031000043E7F442400003C7C40403C7C400080
S11303201C3C60603C1C00003C7C6030607C3C00F9
S1130330446C3810386C44009CBCA0A0FC7C0000C9
S11303404C64745C4C64000008083E774141000032
S113035000000077770000004141773E0808000064
S1130360020301030203010011241FBECFEFD4E0F6
S1130370DEBFCDBF13E0A0E0B1E0E4EDFAE102C0DE
S113038005900D92A435B107D9F723E0A4E5B3E0B5
S113039001C01D92A837B207E1F70E94E6070C944A
S11303A0680D0C9400005F9B03C08CB190E008952D
S11303B080E090E008955D9BFECF8CB90895CF93C3
S11303C0C82F8A3021F48DE090E00E94DB018C2F4D
S11303D090E00E94DB0180E090E0CF91089510BC92
S11303E08FE189B988E18AB98EE880BD63ED71E057
S11303F08FED91E00E94EC09089585B7806885BF70
S113040080B7806280BF0895FA01E60FF71F8083EA
S11304100895860F971FFC018081089581B3806140
S113042081BBEBE8F0E0808180648083EAE8F0E05F
S113043080818960808310928700109286000895DD
S113044040E054E161E070E080E80E940402089515
S11304500F931F93CF93DF93CDB7DEB728970FB6D3
S1130460F894DEBF0FBECDBF0E94200260E074E1AD
S113047080E090E00E9409020FE513E090E0F801AB
S11304809183808360E074E180E090E00E9409023F
S113049090E0F8019383828360E074E180E090E06F
S11304A00E94090260E074E180E090E00E94090289
S11304B081EE94E00197F1F700C00000F80180811B
S11304C091819C01215A31092E30310538F4118271
S11304D0108289EF91E0958384834DC0803A910521
S11304E0F0F444E6489F9001499F300D1124A3EB9A
S11304F0B2E60E94BC080024880F991F001C880FD4
S1130500991F001C892F902D84569109EFE5F3E083
S11305109183808381E092E0958384832CC09C0145
S11305202F5A310921353105F0F444E6489F9001F2
S1130530499F300D112428563244A1ECB0EC0E949E
S1130540BC080024880F991F001C880F991F001CE9
S1130550892F902DEFE5F3E09183808386E092E08C
S11305609583848308C0EFE5F3E01182108280E56F
S113057093E09583848380916103909162039C014D
S11305802C5931092E30310548F4EFE5F3E013829C
S1130590128289EF91E0978386834DC08C3991054F
S11305A0F0F444E6489F9001499F300D1124A3EBD9
S11305B0B2E60E94BC080024880F991F001C880F13
S11305C0991F001C892F902D84569109EFE5F3E0C3
S11305D0938382838CE092E0978386832CC09C0172
S11305E02A5A310926353105F0F444E6489F900132
S11305F0499F300D112428563244A1ECB0EC0E94DE
S1130600BC080024880F991F001C880F991F001C28
S1130610892F902DEFE5F3E09383828381E192E0CB
S11306209783868308C0EFE5F3E01382128280E5A6
S113063093E09783868388E0EFE5F3E0DE0111968B
S113064001900D928A95E1F729813A814B815C8171
S11306506D817E818F81988528960FB6F894DEBFD0
S11306600FBECDBFDF91CF911F910F91089580935D
S1130670001008958093001208958EEA0E943703B3
S113068081EA0E9437038AED0E94370382E10E94C7
S1130690370388EC0E94370388EA0E9437038FE30C
S11306A00E94370385ED0E94370380E80E943703D8
S11306B081E80E94370380E50E94370389ED0E9498
S11306C0370381E20E94370380E20E94370382E00D
S11306D00E9437038BED0E94370380E30E943703A7
S11306E08DEA0E94370380E00E94370384EA0E9467
S11306F0370387EA0E9437038FEA0E94370383EDAA
S11307000E94370382E00E9437030895883018F46A
S113071080550E9437030895CF93882354F0C82F3F
S11307208F700E9437038C2F82958F70805F0E9498
S11307303703CF910895CF93C62F0E9486038C2F41
S11307400E948C03CF910895CF93DF93D0E00DC026
S113075060E08D2F0E949B03C0E004C080E00E94F3
S11307603A03CF5FCC23D4F7DF5FD83088F3DF912F
S1130770CF910895CF93DF93D2E00DC060E08D2F29
S11307800E949B03C0E004C080E00E943A03CF5F54
S1130790C531D0F3DF5FD63088F3DF91CF91089570
S11307A00E949B0388E10E943A0388E10E943A0375
S11307B08EE70E943A038CE30E943A0388E10E9488
S11307C03A030895CF93DF93D82FC0E011C0ED2FE3
S11307D0F0E0B097EE0FFF1FEE0FFF1FEE0FFF1FAD
S11307E0EC0FF11DE059FF4F84910E943A03CF5F53
S11307F0C83068F3DF91CF9108950F931F93CF937F
S11308008C01C0E003C00E94E203CF5FF801EC0F4B
S1130810F11D80818111F7CFCF911F910F91089520
S11308200E94A40360E283E00E949B0384E192E0BF
S11308300E94FD0308950E94A40360E283E00E94E5
S11308409B0389E192E00E94FD0308950E94A403A2
S113085060E283E00E949B0383E292E00E94FD0336
S113086008950E94A40360E283E00E949B038DE24A
S113087092E00E94FD0308950E94A40360E283E0D5
S11308800E949B0386E392E00E94FD0308950F9368
S11308901F93CF93DF938C01EB0181E190E00E94E1
S11308A0CB08FC0111830083D383C28320E030E0B2
S11308B00AC0F9013296EE0FFF1FE80FF91F1182EB
S11308C010822F5F3F4F253031059CF3FC01108AC5
S11308D0DF91CF911F910F91089590935A038093C4
S11308E0590308958091590390915A030895242F30
S11308F030E02E5F3F4F220F331F820F931FFC0106
S113090071836083FB01408B0895FC0177876687C0
S11309100895811107C00E94BA036FE085E00E9428
S1130920D0030895813031F40E94BA036FE083E06C
S11309300E94D0030895CF93DF93D82FC62F8091C0
S1130940690390916A030E946D040E94A40368E005
S113095081E00E949B038EE392E00E94FD03C1119B
S113096004C0C0915403C17005C0C091540381E018
S1130970C827C170D23061F460E283E00E949B0317
S11309808DE492E00E94FD038C2F0E94890429C00B
S1130990D130A1F460E283E00E949B0382E592E0FF
S11309A00E94FD0360E285E00E949B038CE592E0D7
S11309B00E94FD038C2F0E94890413C060E283E02F
S11309C00E949B0384E192E00E94FD0360E285E0C3
S11309D00E949B038BE692E00E94FD038C2F0E94F1
S11309E08904DF91CF9108950E94A40368E081E017
S11309F00E949B038EE392E00E94FD0360E283E089
S1130A000E949B0384E192E00E94FD0360E285E082
S1130A100E949B038BE692E00E94FD03089560E030
S1130A2070E088E792E00E94470490936A03809301
S1130A30690390935A0380935903BC0184E192E0C3
S1130A400E94470490935E0380935D036091690361
S1130A5070916A0382E892E00E94470490935C03D9
S1130A6080935B036091690370916A0382E592E06D
S1130A700E9447049093680380936703609169031D
S1130A8070916A0386E992E00E94470490936C0394
S1130A9080936B036091690370916A038DE492E023
S1130AA00E944704909358038093570360915D0319
S1130AB070915E0340E08091690390916A030E9403
S1130AC0770460915B0370915C0341E0809169035A
S1130AD090916A030E9477046091670370916803A0
S1130AE042E08091690390916A030E9477046091C7
S1130AF06B0370916C0343E08091690390916A03E6
S1130B000E947704609157037091580344E08091E8
S1130B10690390916A030E9477046BE974E0809101
S1130B20690390916A030E94850460E174E08091F6
S1130B305D0390915E030E9485046BE174E08091F3
S1130B405B0390915C030E94850466E274E08091EB
S1130B506703909168030E94850461E374E08091C7
S1130B606B0390916C030E9485046CE374E08091A4
S1130B705703909158030E9485040E94F4046FE087
S1130B8083E00E94D00308950E942802EFE5F3E079
S1130B90208331834283538364837583868397835D
S1130BA0E0915903F0915A038081918188579240D2
S1130BB009F054C0209165033091660382E02C3023
S1130BC03807A9F480915403843088F480FD04C06C
S1130BD080E00E94890405C0869560E08F5F0E94D2
S1130BE09B04809154038F5F8093540317C0215159
S1130BF03240A1F480915403882381F080FF04C023
S1130C0081E00E94890405C0869560E081500E94BD
S1130C109B04809154038150809354038091630317
S1130C209091640386509240A9F50E947204209129
S1130C30540330E02E5F3F4F220F331F820F931F68
S1130C40FC01808191810E946D040E947204DC0188
S1130C501E96ED91FC911F9709951CC0809163032A
S1130C609091640381509240A9F40E947204FC01A3
S1130C70828193810E946D040E947204DC011E969D
S1130C80ED91FC911F9780915403869561E070E08B
S1130C9090E00995BFE3EDE0F3E0B150E040F040AF
S1130CA0E1F700C00000089580EB87BB81E58DB9B2
S1130CB008958FB9779BFECF8FB1089588B38F7E47
S1130CC088BB089588B3806188BB08950E945E063E
S1130CD080EC0E9459060E9462060895CF93C82FA3
S1130CE00E945E0683E00E9459068C2F0E945906DA
S1130CF080E00E945906C82F0E9462068C2FCF9173
S1130D000895CF93DF93D82FC62F0E945E0682E00A
S1130D100E9459068D2F0E9459068C2F0E94590655
S1130D200E946206DF91CF910895CF93C82F0E944D
S1130D305E068C2F0E9459060E946206CF91089588
S1130D401F93CF93DF93182FD62FC42F0E945E06D4
S1130D5085E00E945906812F0E9459068D2F0E941A
S1130D6059068C2F0E9459060E946206DF91CF918A
S1130D701F9108950E9454060E94660640E860EEA2
S1130D808FE00E94A0068EE00E946E06807E80386E
S1130D9031F085EA92E00E944D0A81E0089541E035
S1130DA06FEF8AE20E94A00641EB6FEF89E20E9496
S1130DB0A00645E06FEF88E20E94A00640E460EEE2
S1130DC08FE00E94A00643E063E08BE20E94A0064D
S1130DD080E00895FC01718360830895FC016283BF
S1130DE00895CF92DF92EF92FF920F931F93CF93C8
S1130DF0DF937C01FC0180819181C82FC295CC0FC7
S1130E00C07E9C013695279536952795369527956E
S1130E101281662371F06130C1F40F2EF2E8DF2EE7
S1130E20F02D06E4D5E40F2EF2E4CF2EF02D81E46C
S1130E3017C00F2EF1E8DF2EF02D06E3D5E30F2EB9
S1130E40F2E3CF2EF02D81E30BC00F2EF4E8DF2E5A
S1130E50F02D06E5D5E50F2EF2E5CF2EF02D81E538
S1130E60622F0E9481066C2F8C2D0E948106612FB7
S1130E708D2F0E948106C0E0D0E009C0F701EC0F7D
S1130E80FD1F63818C2F800F0E9481062196812F84
S1130E9090E0C817D90794F38D2D0E949506DF9131
S1130EA0CF911F910F91FF90EF90DF90CF90089515
S1130EB0EF92FF920F931F93CF937C018CE20E94D9
S1130EC06E06C82FC17080FF05C040E061E08CE26F
S1130ED00E94A006CC2361F181E60E946E06C82F11
S1130EE0CC0FCC0FCC0F82E60E946E0682958695BD
S1130EF087708C2B682F70E0C7010E94EA0685E694
S1130F000E946E06682F6F70C7010E94EE06C0E053
S1130F100BC00C2F10E086E68C0F0E946E06F701C2
S1130F20E00FF11F8383CF5FF7018281C81788F335
S1130F30CF911F910F91FF90EF9008950F931F93FE
S1130F40CF938C0186ED92E00E944D0AF8018081D6
S1130F5091819F938F9380EF92E09F938F930E9450
S1130F60370AF80182811F928F9389EF92E09F9351
S1130F708F930E94370A8DB79EB708960FB6F894E0
S1130F809EBF0FBE8DBFC0E015C0F801EC0FF11D70
S1130F9083811F928F931F92CF9386E093E09F9358
S1130FA08F930E94370ACF5F0F900F900F900F908E
S1130FB00F900F90F8018281C81738F389E193E00C
S1130FC00E944D0ACF911F910F910895CF93DF9303
S1130FD0CDB7DEB7E7970FB6F894DEBF0FBECDBF2F
S1130FE080E895E20E94EF0186E091E0909375031A
S1130FF0809374030E94FD010E940E020E943D032F
S11310000E94A4030E940F050E94BA0661E070E0EA
S1131010CE0101960E94EA0662E070E0CE010C96D1
S11310200E94EA0663E070E0CE0147960E94EA0659
S113103068E0CE0101960E94EE0667E0CE010C96B0
S11310400E94EE0666E0CE0147960E94EE0680E01E
S113105090E008C0E4E0F0E0EC0FFD1FE80FF91F9A
S1131060808301962B8130E0821793079CF380E004
S113107090E00AC0EFE0F0E0EC0FFD1FE80FF91F6D
S1131080282F220F208301962E8530E082179307A4
S11310908CF380E090E00BC0EAE1F0E0EC0FFD1F80
S11310A0E80FF91F282F220F280F20830196298D7E
S11310B030E08217930784F361E0CE010C960E941E
S11310C0F1062FE38DE093E0215080409040E1F75A
S11310D000C00000CE0182960E9458072FE38DE0E5
S11310E093E0215080409040E1F700C0000060E0B0
S11310F0CE0101960E94F1062FE38DE093E021508A
S113110080409040E1F700C00000CE018D960E941F
S113111058078CE20E946E061F928F9381E393E03E
S11311209F938F930E94370A2FE38DE093E0215021
S113113080409040E1F700C0000087EA91E6019703
S1131140F1F700C0000087EA91E60197F1F700C0CB
S113115000008BE393E00E944D0ACE0182960E9428
S11311609E07CE018D960E949E070F900F900F90C0
S11311700F900E94C405FDCFA29FB001B39FC00190
S1131180A39F700D811D1124911DB29F700D811DAF
S11311901124911D08950F931F93CF93DF938230F1
S11311A0910510F482E090E0E0917003F0917103F6
S11311B020E030E0A0E0B0E0309719F140815181A7
S11311C00281138148175907C8F08417950769F4F9
S11311D0109731F012960C93129713961C9327C014
S11311E0009370031093710322C02115310519F087
S11311F04217530718F49A01BD01EF01DF01F8010A
S1131200DBCF21153105F9F0281B390B24303105CA
S113121080F48A819B816115710521F0FB01938320
S1131220828304C09093710380937003FE0132960D
S113123044C0FE01E20FF31F8193919322503109C0
S1131240398328833AC020916E0330916F03232B96
S113125041F4209102013091030130936F032093F4
S11312606E0320910001309101012115310541F4F3
S11312702DB73EB74091040150910501241B350B55
S1131280E0916E03F0916F03E217F307A0F42E1BB5
S11312903F0B2817390778F0AC014E5F5F4F2417D6
S11312A0350748F04E0F5F1F50936F0340936E0352
S11312B08193919302C0E0E0F0E0CF01DF91CF9100
S11312C01F910F910895CF93DF93009709F481C084
S11312D0FC01329713821282A0917003B0917103C2
S11312E0109781F420813181820F931F20916E0326
S11312F030916F032817390751F5F0936F03E0938A
S11313006E0367C0ED0120E030E0CE17DF0740F444
S11313104A815B819E0141155105F1F0EA01F5CF47
S1131320D383C28340815181840F951FC817D90785
S113133059F488819981840F951F02969183808343
S11313408A819B81938382832115310529F4F0934B
S11313507103E09370033DC0E901FB83EA83499183
S11313605991C40FD51FEC17FD0761F48081918159
S1131370840F951F0296E901998388838281938162
S11313809B838A83E0E0F0E012968D919C91139701
S1131390009719F0FD01DC01F7CF8D919C91119715
S11313A09D012E5F3F4F820F931F20916E0330915A
S11313B06F032817390769F4309729F410927103E1
S11313C01092700302C013821282B0936F03A09331
S11313D06E03DF91CF9108950F931F93CF93DF9303
S11313E0009731F46115710519F480E090E03AC07A
S11313F08B01EC016EE070E081E090E00E945E0CF5
S1131400FC01892B91F380E883830115110571F0A8
S11314101387028781E88383809172039091730319
S1131420892B21F4F0937303E09372032097C9F09E
S1131430D187C08783818260838380917403909174
S11314407503892B71F4F0937503E0937403809111
S1131450760390917703892B21F4F0937703E0933B
S11314607603CF01DF91CF911F910F910895A0E0F2
S1131470B0E0EDE3FAE00C94410DAE014B5F5F4F39
S1131480FA0161917191AF01809174039091750398
S11314900E947D0AE2E00C945D0D0F931F93CF939D
S11314A0DF93E0917403F0917503238121FF1BC046
S11314B08C01D0E0C0E0F80181918F016091740348
S11314C070917503DB011896ED91FC9119978823AF
S11314D031F00995892B79F3DFEFCFEFECCF8AE078
S11314E00995892B19F08FEF9FEF02C08D2F9C2F48
S11314F0DF91CF911F910F910895ABE0B0E0E3E845
S1131500FAE00C94310D6C017B018A01FC01178215
S11315101682838181FFCCC1CE0101963C01F60184
S11315209381F70193FD859193FF81917F01882336
S113153009F4BAC1853239F493FD859193FF819101
S11315407F01853229F4B60190E00E94970CE7CF21
S1131550912C212C312CFFE1F315D8F08B3279F04A
S113156038F4803279F08332A1F4232D20611DC038
S11315708D3261F0803369F4232D216016C0832DF0
S11315808260382EE32DE4603E2E2AC0F32DF860ED
S11315901DC037FC2DC020ED280F2A3040F08E32BC
S11315A0B9F436FC81C1232D2064322E19C036FED5
S11315B006C08AE0989E200D1124922E11C0EAE004
S11315C02E9E200D1124222EF32DF0623F2E08C0F2
S11315D08C3621F4832D8068382E02C0883641F47D
S11315E0F70193FD859193FF81917F018111B3CF21
S11315F0982F9F7D9554933028F40C5F1F4F9FE3E1
S113160099830DC0833631F0833771F0833509F047
S113161059C021C0F801808189830E5F1F4F88243F
S11316208394912C530113C02801F2E04F0E511CF6
S1131630F801A080B18036FE03C0692D70E002C0BD
S11316406FEF7FEFC5010E948C0C4C018201F32DDA
S1131650FF773F2E16C0280122E0420E511CF801EC
S1131660A080B18036FE03C0692D70E002C06FEF28
S11316707FEFC5010E947A0C4C01F32DF0683F2ED8
S1131680820133FC1BC0822D90E088169906B0F4C9
S1131690B60180E290E00E94970C2A94F4CFF50101
S11316A037FC859137FE81915F01B60190E00E947D
S11316B0970C21102A9421E0821A91088114910434
S11316C071F7E8C0843611F0893641F5F80137FE28
S11316D007C060817181828193810C5F1F4F08C0B4
S11316E060817181072E000C880B990B0E5F1F4FD0
S11316F0F32DFF763F2E97FF09C090958095709546
S113170061957F4F8F4F9F4FF0683F2E2AE030E066
S1131710A3010E94D30C882E861845C0853731F466
S1131720232D2F7EB22E2AE030E025C0932D997F01
S1131730B92E8F36C1F018F4883579F0B5C08037EA
S113174019F0883721F0B0C0E92FE061BE2EB4FE55
S11317500DC0FB2DF460BF2E09C034FE0AC0292F32
S11317602660B22E06C028E030E005C020E130E05B
S113177002C020E132E0F801B7FE07C06081718148
S1131780828193810C5F1F4F06C06081718180E06C
S113179090E00E5F1F4FA3010E94D30C882E861881
S11317A0FB2DFF773F2E36FE0DC0232D2E7FA22E5C
S11317B0891458F434FE0BC032FC09C0832D8E7E8C
S11317C0A82E05C0B82CA32C03C0B82C01C0B92C7A
S11317D0A4FE0FC0FE01E80DF11D8081803321F4C9
S11317E09A2D997EA92E09C0A2FE06C0B394B39483
S11317F004C08A2D867809F0B394A3FC11C0A0FE1E
S113180006C0B21488F4280C922C9B180EC0B21493
S113181060F4B60180E290E00E94970CB394F7CF95
S1131820B21418F42B1802C0982C212CA4FE10C05A
S1131830B60180E390E00E94970CA2FE17C0A1FCC1
S113184003C088E790E002C088E590E0B6010CC0D0
S11318508A2D867859F0A1FE02C08BE201C080E295
S1131860A7FC8DE2B60190E00E94970C891438F42D
S1131870B60180E390E00E94970C9A94F7CF8A9483
S1131880F301E80DF11D8081B60190E00E94970CF0
S11318908110F5CF222009F442CEB60180E290E017
S11318A00E94970C2A94F6CFF6018681978102C094
S11318B08FEF9FEF2B96E2E10C944D0D0F931F9346
S11318C0CF93DF93869F8001879F100D969F100D05
S11318D01124C8010E94CB08EC01009729F0A8014B
S11318E060E070E00E94850CCE01DF91CF911F91E2
S11318F00F910895FC010590615070400110D8F7D4
S1131900809590958E0F9F1F0895DC0101C06D9303
S113191041505040E0F70895FC016150704001903F
S11319200110D8F7809590958E0F9F1F08950F93FF
S11319301F93CF93DF93FB01238121FD03C08FEF1E
S11319409FEF2CC022FF16C0468157812481358128
S11319504217530744F4A081B1819D012F5F3F4F8B
S1131960318320838C93268137812F5F3F4F3783C8
S1131970268314C08B01EC01FB010084F185E02D6A
S11319800995892BE1F6D80116968D919C911797AC
S1131990019617969C938E931697CE01DF91CF9163
S11319A01F910F910895FA01AA27283051F120318F
S11319B081F1E8946F936E7F6E5F7F4F8F4F9F4FDF
S11319C0AF4FB1E03ED0B4E03CD0670F781F891F21
S11319D09A1FA11D680F791F8A1F911DA11D6A0FEF
S11319E0711D811D911DA11D20D009F468943F91A2
S11319F02AE0269F11243019305D3193DEF6CF01A1
S1131A000895462F4770405D4193B3E00FD0C9F766
S1131A10F6CF462F4F70405D4A3318F0495D31FDD3
S1131A204052419302D0A9F7EACFB4E0A695979526
S1131A30879577956795BA95C9F7009761057105FC
S1131A4008959B01AC010A2E069457954795379546
S1131A502795BA95C9F7620F731F841F951FA01DA0
S1131A6008952F923F924F925F926F927F928F923E
S1131A709F92AF92BF92CF92DF92EF92FF920F9319
S1131A801F93CF93DF93CDB7DEB7CA1BDB0B0FB623
S1131A90F894DEBF0FBECDBF09942A8839884888E0
S1131AA05F846E847D848C849B84AA84B984C88476
S1131AB0DF80EE80FD800C811B81AA81B981CE0F6D
S1131AC0D11D0FB6F894DEBF0FBECDBFED01089552
S1071AD0F894FFCFB4
S1131AD40000780320000000000200000000DF0181
S1131AE4000000005374617274696E67205352419C
S1131AF44D20746573742E2E2E00577269746520FC
S1131B047068617365206572726F723A20657874C7
S1131B145F72616D5B2534645D203D20253032584D
S1131B24202873686F756C642062652025303258F0
S1131B34290A0052657472696576616C2070686163
S1131B447365206572726F723A206578745F72618E
S1131B546D5B2534645D203D202530325820287384
S1131B64686F756C642062652025303258290A0038
S1131B745352414D207465737420636F6D706C65AA
S1131B847465642077697468200A25346420657256
S1131B94726F727320696E2077726974652070683D
S1131BA461736520616E64200A2534642065727251
S1131BB46F727320696E2072657472696576616CE4
S1131BC42070686173650A0A004E45555452414CAD
S1131BD4004C45465400524947485400444F574E1C
S1131BE400555000506C6179006869676873636FCD
S1131BF472650063616C6962726174650073657413
S1131C0420646966660062796520627965005049DA
S1131C144E4720504F4E472047414D45005175696A
S1131C24740043616C696272617465005365742065
S1131C34646966666963756C7479005365652F72AB
S1131C4465736574206873004D61696E204D656E1B
S1131C5475005365652F5265736574204869676818
S1131C6473636F72650053657420446966666963BF
S1131C74756C7479004D43503235313520697320C5
S1131C846E6F7420696E20636F6E66696775726126
S1131C9474696F6E206D6F6465206166746572206B
S1131CA47265736574000A53544152542043414E7F
S1131CB4204D657373616765207072696E742E00BC
S1131CC449443A202575200A004C656E6774683AC5
S1131CD4202575200A005061636B616765205B25CC
S1131CE4645D3A202564200A00454E442043414E55
S1131CF4204D657373616765207072696E742E0A72
S1131D0400494E54463A2025640A002D2D2D2D2DCC
S1131D142D2D2D2D2D2D2D2D2D2D2D2D2D2D2D2DEB
S1071D242D2D2D0030
S9030000FC
