:100000000C94B4010C94D1010C94D1010C94D10145
:100010000C94D1010C94D1010C94D1010C94D10118
:100020000C94D1010C94D1010C94D1010C94D10108
:100030000C94D1010C94D1010C94D1010C94D101F8
:100040000C94D1010C94D1010C94D1010C94D101E8
:100050000C94D1010C94D1010C94D1010C94D101D8
:100060000C94D1010C94D1010C94D1010C94D101C8
:10007000000000000000000000065F5F06000000B6
:100080000007070007070000147F7F147F7F14001C
:10009000242E6B6B3A120000466630180C66620024
:1000A000307A4F5D377A48000407030000000000F3
:1000B000001C3E63410000000041633E1C00000044
:1000C000082A3E1C1C3E2A0808083E3E080800007C
:1000D00000A0E06000000000080808080808000010
:1000E00000006060000000006030180C0603010092
:1000F0003E7F594D7F3E000042427F7F40400000DE
:10010000627359496F660000226349497F360000D7
:10011000181C16137F7F1000276745457D390000A6
:100120003C7E4B4979300000036371190F070000D2
:10013000367F49497F360000064F49693F1E00005F
:1001400000006C6C0000000000A0EC6C00000000DF
:10015000081C366341000000141414141414000029
:10016000004163361C080000020351590F060000CD
:100170003E7F415D5D1F1E007C7E13137E7C000070
:10018000417F7F49497F36001C3E63414163220025
:10019000417F7F41637F1C00417F7F495D41630058
:1001A000417F7F491D0103001C3E63415173720072
:1001B0007F7F08087F7F000000417F7F41000000B3
:1001C000307040417F3F0100417F7F081C77630012
:1001D000417F7F41406070007F7F060C067F7F007B
:1001E0007F7F060C187F7F001C3E6341633E1C002E
:1001F000417F7F49090F06001E3F21717F5E00008D
:10020000417F7F19396F460026674D597B320000C8
:1002100003417F7F410300007F7F40407F7F0000DC
:100220001F3F60603F1F00007F7F3018307F7F00DE
:1002300063771C081C776300074F78784F0700002E
:100240006773594D47637100007F7F414100000093
:100250000103060C183060000041417F7F00000060
:10026000080C0603060C0800808080808080808057
:100270000000030704000000207454543C78400040
:10028000413F7F44447C3800387C44446C28000063
:10029000307848493F7F4000387C54545C18000057
:1002A000487E7F490302000098BCA4A4F87C0400A7
:1002B000417F7F08047C780000447D7D4000000081
:1002C00040C484FD7D000000417F7F10386C4400F5
:1002D00000417F7F400000007C7C0C180C7C780083
:1002E0007C7C04047C780000387C44447C3800002A
:1002F00084FCF8A4243C1800183C24A4F8FC8400D6
:10030000447C78441C180000485C54547424000059
:1003100000043E7F442400003C7C40403C7C400084
:100320001C3C60603C1C00003C7C6030607C3C00FD
:10033000446C3810386C44009CBCA0A0FC7C0000CD
:100340004C64745C4C64000008083E774141000036
:1003500000000077770000004141773E0808000068
:10036000020301030203010011241FBECFEFD4E0FA
:10037000DEBFCDBF12E0A0E0B1E0E2E9F6E102C0ED
:1003800005900D92AA3EB107D9F723E0AAEEB2E09C
:1003900001C01D92AE30B207E1F70E94A6060C9490
:1003A000470B0C9400005F9B03C08CB190E0089554
:1003B00080E090E008955D9BFECF8CB90895CF93C7
:1003C000C82F8A3021F48DE090E00E94DB018C2F51
:1003D00090E00E94DB0180E090E0CF91089510BC96
:1003E0008FE189B988E18AB98EE880BD63ED71E05B
:1003F0008FED91E00E94FB07089585B7806885BF67
:1004000080B7806280BF0895FA01E60FF71F8083EE
:100410000895860F971FFC018081089581B3806144
:1004200081BBEBE8F0E0808180648083EAE8F0E063
:1004300080818960808310928700109286000895E1
:1004400040E054E161E070E080E80E940402089519
:100450000F931F93CF93DF93CDB7DEB728970FB6D7
:10046000F894DEBF0FBECDBF0E94200260E074E1B1
:1004700080E090E00E94090205EF12E090E0F801B0
:100480009183808360E074E180E090E00E94090243
:1004900090E0F8019383828360E074E180E090E073
:1004A0000E94090260E074E180E090E00E9409028D
:1004B00081EE94E00197F1F700C00000F80180811F
:1004C00091819C01215A31092930310538F411827A
:1004D000108289EF91E0958384834DC0803A910525
:1004E000F0F444E6489F9001499F300D1124A3EB9E
:1004F000B2E60E94CB060024880F991F001C880FCB
:10050000991F001C892F902D84569109E5EFF2E088
:100510009183808381E092E0958384832CC09C0149
:100520002A5A310926353105F0F444E6489F9001F6
:10053000499F300D112428563244A1ECB0EC0E94A2
:10054000CB060024880F991F001C880F991F001CE0
:10055000892F902DE5EFF2E09183808386E092E091
:100560009583848308C0E5EFF2E0118210828CE06D
:1005700092E0958384838091F7029091F8029C0128
:100580002C5931092E30310548F4E5EFF2E01382A1
:10059000128289EF91E0978386834DC08C39910553
:1005A000F0F444E6489F9001499F300D1124A3EBDD
:1005B000B2E60E94CB060024880F991F001C880F0A
:1005C000991F001C892F902D84569109E5EFF2E0C8
:1005D0009383828380E192E0978386832CC09C0181
:1005E0002A5A310926353105F0F444E6489F900136
:1005F000499F300D112428563244A1ECB0EC0E94E2
:10060000CB060024880F991F001C880F991F001C1F
:10061000892F902DE5EFF2E09383828385E192E0CC
:100620009783868308C0E5EFF2E0138212828CE0A4
:1006300092E09783868388E0E5EFF2E0DE01119691
:1006400001900D928A95E1F729813A814B815C8175
:100650006D817E818F81988528960FB6F894DEBFD4
:100660000FBECDBFDF91CF911F910F910895809361
:10067000001008958093001208958EEA0E943703B7
:1006800081EA0E9437038AED0E94370382E10E94CB
:10069000370388EC0E94370388EA0E9437038FE310
:1006A0000E94370385ED0E94370380E80E943703DC
:1006B00081E80E94370380E50E94370389ED0E949C
:1006C000370381E20E94370380E20E94370382E011
:1006D0000E9437038BED0E94370380E30E943703AB
:1006E0008DEA0E94370380E00E94370384EA0E946B
:1006F000370387EA0E9437038FEA0E94370383EDAE
:100700000E94370382E00E9437030895883018F46E
:1007100080550E9437030895CF93882354F0C82F43
:100720008F700E9437038C2F82958F70805F0E949C
:100730003703CF910895CF93C62F0E9486038C2F45
:100740000E948C03CF910895CF93DF93D0E00DC02A
:1007500060E08D2F0E949B03C0E004C080E00E94F7
:100760003A03CF5FCC23D4F7DF5FD83088F3DF9133
:10077000CF910895CF93DF93D2E00DC060E08D2F2D
:100780000E949B03C0E004C080E00E943A03CF5F58
:10079000C531D0F3DF5FD63088F3DF91CF91089574
:1007A0000E949B0388E10E943A0388E10E943A0379
:1007B0008EE70E943A038CE30E943A0388E10E948C
:1007C0003A030895CF93DF93D82FC0E011C0ED2FE7
:1007D000F0E0B097EE0FFF1FEE0FFF1FEE0FFF1FB1
:1007E000EC0FF11DE059FF4F84910E943A03CF5F57
:1007F000C83068F3DF91CF9108950F931F93CF9383
:100800008C01C0E003C00E94E203CF5FF801EC0F4F
:10081000F11D80818111F7CFCF911F910F91089524
:100820000E94A40360E283E00E949B0388E192E0BF
:100830000E94FD0308950E94A40360E283E00E94E9
:100840009B038DE192E00E94FD0308950E94A403A2
:1008500060E283E00E949B0387E292E00E94FD0336
:1008600008950E94A40360E283E00E949B0381E359
:1008700092E00E94FD0308950E94A40360E283E0D9
:100880000E949B038AE392E00E94FD0308950F9368
:100890001F93CF93DF938C01EB0181E190E00E94E5
:1008A000DA06FC0111830083D383C28320E030E0A9
:1008B0000AC0F9013296EE0FFF1FE80FF91F1182EF
:1008C00010822F5F3F4F253031059CF3FC01108AC9
:1008D000DF91CF911F910F9108959093F002809333
:1008E000EF0208958091EF029091F0020895242F75
:1008F00030E02E5F3F4F220F331F820F931FFC010A
:1009000071836083FB01408B0895FC0177876687C4
:100910000895811107C00E94BA036FE085E00E942C
:10092000D0030895813031F40E94BA036FE083E070
:100930000E94D0030895CF93DF93D82FC62F8091C4
:10094000FF02909100030E946D040E94A40368E0DE
:1009500081E00E949B0382E492E00E94FD03C111AA
:1009600004C0C091EA02C17005C0C091EA0281E0F2
:10097000C827C170D23061F460E283E00E949B031B
:1009800081E592E00E94FD038C2F0E94890435C00E
:10099000D130A1F460E283E00E949B0386E592E0FF
:1009A0000E94FD0360E285E00E949B0380E692E0E6
:1009B0000E94FD038C2F0E9489041FC060E283E027
:1009C0000E949B0388E192E00E94FD0360E285E0C3
:1009D0000E949B038FE692E00E94FD038C2F0E94F1
:1009E00089041F92DF938CE792E09F938F930E947C
:1009F00046080F900F900F900F90DF91CF910895C0
:100A00000E94A40368E081E00E949B0382E492E0DC
:100A10000E94FD0360E283E00E949B0388E192E074
:100A20000E94FD0360E285E00E949B038FE692E056
:100A30000E94FD03089560E070E085E892E00E9466
:100A40004704909300038093FF029093F0028093F9
:100A5000EF02BC0188E192E00E9447049093F40207
:100A60008093F3026091FF02709100038FE892E09F
:100A70000E9447049093F2028093F1026091FF027A
:100A80007091000386E592E00E9447049093FE0275
:100A90008093FD026091FF027091000383EA92E06F
:100AA0000E94470490930203809301036091FF0228
:100AB0007091000381E592E00E9447049093EE025A
:100AC0008093ED026091F3027091F40240E0809116
:100AD000FF02909100030E9477046091F1027091EF
:100AE000F20241E08091FF02909100030E9477049E
:100AF0006091FD027091FE0242E08091FF029091B0
:100B000000030E947704609101037091020343E0A7
:100B10008091FF02909100030E9477046091ED02A2
:100B20007091EE0244E08091FF02909100030E94D8
:100B300077046BE974E08091FF02909100030E94BA
:100B4000850460E174E08091F3029091F4020E94C8
:100B500085046BE174E08091F1029091F2020E94B1
:100B6000850466E274E08091FD029091FE020E948D
:100B7000850461E374E080910103909102030E9477
:100B800085046CE374E08091ED029091EE020E9486
:100B900085040E9400056FE083E00E94D003089561
:100BA0000E942802E5EFF2E02083318342835383E1
:100BB0006483758386839783E091EF02F091F0025E
:100BC000808191818558924009F054C02091FB02A8
:100BD0003091FC0282E020313807A9F48091EA02CA
:100BE000843088F480FD04C080E00E94890405C040
:100BF000869560E08F5F0E949B048091EA028F5F80
:100C00008093EA0217C025513240A1F48091EA0294
:100C1000882381F080FF04C081E00E94890405C020
:100C2000869560E081500E949B048091EA02815089
:100C30008093EA028091F9029091FA0286509240E4
:100C4000A9F50E9472042091EA0230E02E5F3F4F26
:100C5000220F331F820F931FFC01808191810E941C
:100C60006D040E947204DC011E96ED91FC911F97A9
:100C700009951CC08091F9029091FA02815092402E
:100C8000A9F40E947204FC01828193810E946D0488
:100C90000E947204DC011E96ED91FC911F978091D9
:100CA000EA02869561E070E090E009950E94720486
:100CB000FC01A281B3818C9111969C91208131819C
:100CC0004091EA021F924F933F932F939F938F93EC
:100CD00082EB92E09F938F930E944608EDB7FEB798
:100CE00038960FB6F894FEBF0FBEEDBF089580EBA7
:100CF00087BB81E58DB908958FB9779BFECF0895A5
:100D0000779BFECF8FB1089588B38F7E88BB81EE2D
:100D100092E09F938F930E9446080F900F90089542
:100D200088B3806188BB0895CF93C82F0E94840642
:100D300083E00E947C068C2F0E947C060E94800625
:100D4000C82F0E9490068C2FCF91089580E895E2DD
:100D50000E94EF0186E091E090930B0380930A03D9
:100D60000E94FD010E940E020E943D030E94A40306
:100D70000E941B050E9477060E94D0052FE986E895
:100D800091E0215080409040E1F700C000008CECE1
:100D90000E949406F1CFA29FB001B39FC001A39F10
:100DA000700D811D1124911DB29F700D811D1124A4
:100DB000911D08950F931F93CF93DF938230910578
:100DC00010F482E090E0E0910603F091070320E048
:100DD00030E0A0E0B0E0309719F14081518102810C
:100DE000138148175907C8F08417950769F41097BD
:100DF00031F012960C93129713961C9327C0009310
:100E000006031093070322C02115310519F042177C
:100E1000530718F49A01BD01EF01DF01F801DBCFA0
:100E200021153105F9F0281B390B2430310580F4E8
:100E30008A819B816115710521F0FB019383828377
:100E400004C09093070380930603FE01329644C0CA
:100E5000FE01E20FF31F81939193225031093983F0
:100E600028833AC02091040330910503232B41F4D9
:100E70002091020130910301309305032093040374
:100E800020910001309101012115310541F42DB768
:100E90003EB74091040150910501241B350BE091B0
:100EA0000403F0910503E217F307A0F42E1B3F0B98
:100EB0002817390778F0AC014E5F5F4F24173507CC
:100EC00048F04E0F5F1F5093050340930403819336
:100ED000919302C0E0E0F0E0CF01DF91CF911F914C
:100EE0000F910895CF93DF93009709F481C0FC011F
:100EF000329713821282A0910603B09107031097D4
:100F000081F420813181820F931F2091040330915D
:100F100005032817390751F5F0930503E0930403FF
:100F200067C0ED0120E030E0CE17DF0740F44A81D2
:100F30005B819E0141155105F1F0EA01F5CFD383A4
:100F4000C28340815181840F951FC817D90759F476
:100F500088819981840F951F0296918380838A816D
:100F60009B81938382832115310529F4F093070334
:100F7000E09306033DC0E901FB83EA83499159915F
:100F8000C40FD51FEC17FD0761F480819181840F98
:100F9000951F0296E90199838883828193819B83BF
:100FA0008A83E0E0F0E012968D919C911397009770
:100FB00019F0FD01DC01F7CF8D919C9111979D01F6
:100FC0002E5F3F4F820F931F209104033091050342
:100FD0002817390769F4309729F410920703109203
:100FE000060302C013821282B0930503A093040388
:100FF000DF91CF9108950F931F93CF93DF930097C5
:1010000031F46115710519F480E090E03AC08B016C
:10101000EC016EE070E081E090E00E943D0AFC018E
:10102000892B91F380E883830115110571F01387F3
:10103000028781E883838091080390910903892BBB
:1010400021F4F0930903E09308032097C9F0D187B6
:10105000C08783818260838380910A0390910B0310
:10106000892B71F4F0930B03E0930A0380910C0336
:1010700090910D03892B21F4F0930D03E0930C0361
:10108000CF01DF91CF911F910F910895A0E0B0E0C3
:10109000ECE4F8E00C94200BAE014B5F5F4FFA01DB
:1010A00061917191AF0180910A0390910B030E94AD
:1010B0005C08E2E00C943C0BABE0B0E0E2E6F8E068
:1010C0000C94100B6C017B018A01FC0117821682C3
:1010D000838181FFCCC1CE0101963C01F601938151
:1010E000F70193FD859193FF81917F01882309F496
:1010F000BAC1853239F493FD859193FF81917F01C7
:10110000853229F4B60190E00E94760AE7CF912C4F
:10111000212C312CFFE1F315D8F08B3279F038F423
:10112000803279F08332A1F4232D20611DC08D32ED
:1011300061F0803369F4232D216016C0832D826015
:10114000382EE32DE4603E2E2AC0F32DF8601DC03A
:1011500037FC2DC020ED280F2A3040F08E32B9F434
:1011600036FC81C1232D2064322E19C036FE06C004
:101170008AE0989E200D1124922E11C0EAE02E9E46
:10118000200D1124222EF32DF0623F2E08C08C3644
:1011900021F4832D8068382E02C0883641F4F7018F
:1011A00093FD859193FF81917F018111B3CF982F9A
:1011B0009F7D9554933028F40C5F1F4F9FE39983D4
:1011C0000DC0833631F0833771F0833509F059C093
:1011D00021C0F801808189830E5F1F4F882483948A
:1011E000912C530113C02801F2E04F0E511CF8015D
:1011F000A080B18036FE03C0692D70E002C06FEFA1
:101200007FEFC5010E946B0A4C018201F32DFF772D
:101210003F2E16C0280122E0420E511CF801A0808A
:10122000B18036FE03C0692D70E002C06FEF7FEF22
:10123000C5010E94590A4C01F32DF0683F2E82012E
:1012400033FC1BC0822D90E088169906B0F4B601DD
:1012500080E290E00E94760A2A94F4CFF50137FCF0
:10126000859137FE81915F01B60190E00E94760A78
:1012700021102A9421E0821A91088114910471F7B7
:10128000E8C0843611F0893641F5F80137FE07C011
:1012900060817181828193810C5F1F4F08C06081E2
:1012A0007181072E000C880B990B0E5F1F4FF32DD9
:1012B000FF763F2E97FF09C09095809570956195B8
:1012C0007F4F8F4F9F4FF0683F2E2AE030E0A30101
:1012D0000E94B20A882E861845C0853731F4232D26
:1012E0002F7EB22E2AE030E025C0932D997FB92EB3
:1012F0008F36C1F018F4883579F0B5C0803719F011
:10130000883721F0B0C0E92FE061BE2EB4FE0DC0D9
:10131000FB2DF460BF2E09C034FE0AC0292F2660C1
:10132000B22E06C028E030E005C020E130E002C067
:1013300020E132E0F801B7FE07C06081718182814F
:1013400093810C5F1F4F06C06081718180E090E047
:101350000E5F1F4FA3010E94B20A882E8618FB2D34
:10136000FF773F2E36FE0DC0232D2E7FA22E89142F
:1013700058F434FE0BC032FC09C0832D8E7EA82E9B
:1013800005C0B82CA32C03C0B82C01C0B92CA4FEF6
:101390000FC0FE01E80DF11D8081803321F49A2DEC
:1013A000997EA92E09C0A2FE06C0B394B39404C0CE
:1013B0008A2D867809F0B394A3FC11C0A0FE06C064
:1013C000B21488F4280C922C9B180EC0B21460F44E
:1013D000B60180E290E00E94760AB394F7CFB2148F
:1013E00018F42B1802C0982C212CA4FE10C0B601B2
:1013F00080E390E00E94760AA2FE17C0A1FC03C021
:1014000088E790E002C088E590E0B6010CC08A2D24
:10141000867859F0A1FE02C08BE201C080E2A7FCF1
:101420008DE2B60190E00E94760A891438F4B60184
:1014300080E390E00E94760A9A94F7CF8A94F301B1
:10144000E80DF11D8081B60190E00E94760A8110BE
:10145000F5CF222009F442CEB60180E290E00E944E
:10146000760A2A94F6CFF6018681978102C08FEF23
:101470009FEF2B96E2E10C942C0B0F931F93CF93CD
:10148000DF93869F8001879F100D969F100D11247A
:10149000C8010E94DA06EC01009729F0A80160E07B
:1014A00070E00E94640ACE01DF91CF911F910F91ED
:1014B0000895FC010590615070400110D8F78095A7
:1014C00090958E0F9F1F0895DC0101C06D934150D0
:1014D0005040E0F70895FC01615070400190011008
:1014E000D8F7809590958E0F9F1F08950F931F93A7
:1014F000CF93DF93FB01238121FD03C08FEF9FEF8B
:101500002CC022FF16C046815781248135814217A5
:10151000530744F4A081B1819D012F5F3F4F318378
:1015200020838C93268137812F5F3F4F378326831B
:1015300014C08B01EC01FB010084F185E02D0995BD
:10154000892BE1F6D80116968D919C9117970196FB
:1015500017969C938E931697CE01DF91CF911F9192
:101560000F910895FA01AA27283051F1203181F115
:10157000E8946F936E7F6E5F7F4F8F4F9F4FAF4F9B
:10158000B1E03ED0B4E03CD0670F781F891F9A1FAE
:10159000A11D680F791F8A1F911DA11D6A0F711D62
:1015A000811D911DA11D20D009F468943F912AE06E
:1015B000269F11243019305D3193DEF6CF01089556
:1015C000462F4770405D4193B3E00FD0C9F7F6CF87
:1015D000462F4F70405D4A3318F0495D31FD40524F
:1015E000419302D0A9F7EACFB4E0A69597958795E5
:1015F00077956795BA95C9F70097610571050895C4
:101600009B01AC010A2E069457954795379527956F
:10161000BA95C9F7620F731F841F951FA01D089507
:101620002F923F924F925F926F927F928F929F92F2
:10163000AF92BF92CF92DF92EF92FF920F931F93E0
:10164000CF93DF93CDB7DEB7CA1BDB0B0FB6F89491
:10165000DEBF0FBECDBF09942A88398848885F84D1
:101660006E847D848C849B84AA84B984C884DF8042
:10167000EE80FD800C811B81AA81B981CE0FD11D26
:101680000FB6F894DEBF0FBECDBFED010895F894FC
:02169000FFCF8A
:1016920000000E0320000000000200000000DF0135
:1016A200000000005374617274696E6720535241E6
:1016B2004D20746573742E2E2E0057726974652046
:1016C2007068617365206572726F723A2065787412
:1016D2005F72616D5B2534645D203D202530325898
:1016E200202873686F756C6420626520253032583B
:1016F200290A0052657472696576616C20706861AE
:101702007365206572726F723A206578745F7261D8
:101712006D5B2534645D203D2025303258202873CE
:10172200686F756C642062652025303258290A0082
:101732005352414D207465737420636F6D706C65F4
:101742007465642077697468200A253464206572A0
:10175200726F727320696E20777269746520706887
:1017620061736520616E64200A253464206572729B
:101772006F727320696E2072657472696576616C2E
:101782002070686173650A0A004E45555452414CF7
:10179200004C454654005249474854002D2D2D0017
:1017A200444F574E00555000506C6179006869678C
:1017B2006873636F72650063616C696272617465FC
:1017C20000736574206469666600627965206279D7
:1017D200650050494E4720504F4E472047414D45E6
:1017E20000517569740043616C69627261746500CD
:1017F20053657420646966666963756C7479005315
:1018020065652F72657365742068730050414745A2
:101812003D25640A004D61696E204D656E75005369
:1018220065652F5265736574204869676873636FD5
:1018320072650053657420446966666963756C74E9
:101842007900706172656E743A2025732C2063757D
:101852007272656E74206E6F64653A202573204340
:10186200555252454E54204152524F573D25640A1B
:0A18720000424C414C41424C410041
:00000001FF
