:100000000C94B4010C94D1010C94D1010C94D10145
:100010000C94D1010C94D1010C94D1010C94D10118
:100020000C94D1010C94D1010C94D1010C94D10108
:100030000C94D1010C94D1010C94D1010C94D101F8
:100040000C94D1010C94D1010C94D1010C94D101E8
:100050000C94D1010C94D1010C94D1010C94D101D8
:100060000C94D1010C94D1010C94D1010C94D101C8
:10007000000000000000000000065F5F06000000B6
:100080000007070007070000147F7F147F7F14001C
:10009000242E6B6B3A120000466630180C66620024
:1000A000307A4F5D377A48000407030000000000F3
:1000B000001C3E63410000000041633E1C00000044
:1000C000082A3E1C1C3E2A0808083E3E080800007C
:1000D00000A0E06000000000080808080808000010
:1000E00000006060000000006030180C0603010092
:1000F0003E7F594D7F3E000042427F7F40400000DE
:10010000627359496F660000226349497F360000D7
:10011000181C16137F7F1000276745457D390000A6
:100120003C7E4B4979300000036371190F070000D2
:10013000367F49497F360000064F49693F1E00005F
:1001400000006C6C0000000000A0EC6C00000000DF
:10015000081C366341000000141414141414000029
:10016000004163361C080000020351590F060000CD
:100170003E7F415D5D1F1E007C7E13137E7C000070
:10018000417F7F49497F36001C3E63414163220025
:10019000417F7F41637F1C00417F7F495D41630058
:1001A000417F7F491D0103001C3E63415173720072
:1001B0007F7F08087F7F000000417F7F41000000B3
:1001C000307040417F3F0100417F7F081C77630012
:1001D000417F7F41406070007F7F060C067F7F007B
:1001E0007F7F060C187F7F001C3E6341633E1C002E
:1001F000417F7F49090F06001E3F21717F5E00008D
:10020000417F7F19396F460026674D597B320000C8
:1002100003417F7F410300007F7F40407F7F0000DC
:100220001F3F60603F1F00007F7F3018307F7F00DE
:1002300063771C081C776300074F78784F0700002E
:100240006773594D47637100007F7F414100000093
:100250000103060C183060000041417F7F00000060
:10026000080C0603060C0800808080808080808057
:100270000000030704000000207454543C78400040
:10028000413F7F44447C3800387C44446C28000063
:10029000307848493F7F4000387C54545C18000057
:1002A000487E7F490302000098BCA4A4F87C0400A7
:1002B000417F7F08047C780000447D7D4000000081
:1002C00040C484FD7D000000417F7F10386C4400F5
:1002D00000417F7F400000007C7C0C180C7C780083
:1002E0007C7C04047C780000387C44447C3800002A
:1002F00084FCF8A4243C1800183C24A4F8FC8400D6
:10030000447C78441C180000485C54547424000059
:1003100000043E7F442400003C7C40403C7C400084
:100320001C3C60603C1C00003C7C6030607C3C00FD
:10033000446C3810386C44009CBCA0A0FC7C0000CD
:100340004C64745C4C64000008083E774141000036
:1003500000000077770000004141773E0808000068
:10036000020301030203010011241FBECFEFD4E0FA
:10037000DEBFCDBF13E0A0E0B1E0E4E3F7E102C0EF
:1003800005900D92A034B107D9F723E0A0E4B3E0C3
:1003900001C01D92A436B207E1F70E94CB060C946F
:1003A000980B0C9400005F9B03C08CB190E0089503
:1003B00080E090E008955D9BFECF8CB90895CF93C7
:1003C000C82F8A3021F48DE090E00E94DB018C2F51
:1003D00090E00E94DB0180E090E0CF91089510BC96
:1003E0008FE189B988E18AB98EE880BD63ED71E05B
:1003F0008FED91E00E941C08089585B7806885BF45
:1004000080B7806280BF0895FA01E60FF71F8083EE
:100410000895860F971FFC018081089581B3806144
:1004200081BBEBE8F0E0808180648083EAE8F0E063
:1004300080818960808310928700109286000895E1
:1004400040E054E161E070E080E80E940402089519
:100450000F931F93CF93DF93CDB7DEB728970FB6D7
:10046000F894DEBF0FBECDBF0E94200260E074E1B1
:1004700080E090E00E9409020BE413E090E0F801B4
:100480009183808360E074E180E090E00E94090243
:1004900090E0F8019383828360E074E180E090E073
:1004A0000E94090260E074E180E090E00E9409028D
:1004B00081EE94E00197F1F700C00000F80180811F
:1004C00091819C01215A31092E30310538F4118275
:1004D000108289EF91E0958384834DC0803A910525
:1004E000F0F444E6489F9001499F300D1124A3EB9E
:1004F000B2E60E94EC060024880F991F001C880FAA
:10050000991F001C892F902D84569109EBE4F3E08C
:100510009183808381E092E0958384832CC09C0149
:100520002F5A310921353105F0F444E6489F9001F6
:10053000499F300D112428563244A1ECB0EC0E94A2
:10054000EC060024880F991F001C880F991F001CBF
:10055000892F902DEBE4F3E09183808386E092E095
:100560009583848308C0EBE4F3E0118210828CE071
:1005700092E09583848380914D0390914E039C017A
:100580002C5931092E30310548F4EBE4F3E01382A5
:10059000128289EF91E0978386834DC08C39910553
:1005A000F0F444E6489F9001499F300D1124A3EBDD
:1005B000B2E60E94EC060024880F991F001C880FE9
:1005C000991F001C892F902D84569109EBE4F3E0CC
:1005D0009383828380E192E0978386832CC09C0181
:1005E0002A5A310926353105F0F444E6489F900136
:1005F000499F300D112428563244A1ECB0EC0E94E2
:10060000EC060024880F991F001C880F991F001CFE
:10061000892F902DEBE4F3E09383828385E192E0D0
:100620009783868308C0EBE4F3E0138212828CE0A8
:1006300092E09783868388E0EBE4F3E0DE01119695
:1006400001900D928A95E1F729813A814B815C8175
:100650006D817E818F81988528960FB6F894DEBFD4
:100660000FBECDBFDF91CF911F910F910895809361
:10067000001008958093001208958EEA0E943703B7
:1006800081EA0E9437038AED0E94370382E10E94CB
:10069000370388EC0E94370388EA0E9437038FE310
:1006A0000E94370385ED0E94370380E80E943703DC
:1006B00081E80E94370380E50E94370389ED0E949C
:1006C000370381E20E94370380E20E94370382E011
:1006D0000E9437038BED0E94370380E30E943703AB
:1006E0008DEA0E94370380E00E94370384EA0E946B
:1006F000370387EA0E9437038FEA0E94370383EDAE
:100700000E94370382E00E9437030895883018F46E
:1007100080550E9437030895CF93882354F0C82F43
:100720008F700E9437038C2F82958F70805F0E949C
:100730003703CF910895CF93C62F0E9486038C2F45
:100740000E948C03CF910895CF93DF93D0E00DC02A
:1007500060E08D2F0E949B03C0E004C080E00E94F7
:100760003A03CF5FCC23D4F7DF5FD83088F3DF9133
:10077000CF910895CF93DF93D2E00DC060E08D2F2D
:100780000E949B03C0E004C080E00E943A03CF5F58
:10079000C531D0F3DF5FD63088F3DF91CF91089574
:1007A0000E949B0388E10E943A0388E10E943A0379
:1007B0008EE70E943A038CE30E943A0388E10E948C
:1007C0003A030895CF93DF93D82FC0E011C0ED2FE7
:1007D000F0E0B097EE0FFF1FEE0FFF1FEE0FFF1FB1
:1007E000EC0FF11DE059FF4F84910E943A03CF5F57
:1007F000C83068F3DF91CF9108950F931F93CF9383
:100800008C01C0E003C00E94E203CF5FF801EC0F4F
:10081000F11D80818111F7CFCF911F910F91089524
:100820000E94A40360E283E00E949B0388E192E0BF
:100830000E94FD0308950E94A40360E283E00E94E9
:100840009B038DE192E00E94FD0308950E94A403A2
:1008500060E283E00E949B0387E292E00E94FD0336
:1008600008950E94A40360E283E00E949B0381E359
:1008700092E00E94FD0308950E94A40360E283E0D9
:100880000E949B038AE392E00E94FD0308950F9368
:100890001F93CF93DF938C01EB0181E190E00E94E5
:1008A000FB06FC0111830083D383C28320E030E088
:1008B0000AC0F9013296EE0FFF1FE80FF91F1182EF
:1008C00010822F5F3F4F253031059CF3FC01108AC9
:1008D000DF91CF911F910F910895909346038093DC
:1008E0004503089580914503909146030895242F70
:1008F00030E02E5F3F4F220F331F820F931FFC010A
:1009000071836083FB01408B0895FC0177876687C4
:100910000895811107C00E94BA036FE085E00E942C
:10092000D0030895813031F40E94BA036FE083E070
:100930000E94D0030895CF93DF93D82FC62F8091C4
:100940005503909156030E946D040E94A40368E031
:1009500081E00E949B0382E492E00E94FD03C111AA
:1009600004C0C0914003C17005C0C091400381E044
:10097000C827C170D23061F460E283E00E949B031B
:1009800081E592E00E94FD038C2F0E94890429C01A
:10099000D130A1F460E283E00E949B0386E592E0FF
:1009A0000E94FD0360E285E00E949B0380E692E0E6
:1009B0000E94FD038C2F0E94890413C060E283E033
:1009C0000E949B0388E192E00E94FD0360E285E0C3
:1009D0000E949B038FE692E00E94FD038C2F0E94F1
:1009E0008904DF91CF9108950E94A40368E081E01B
:1009F0000E949B0382E492E00E94FD0360E283E098
:100A00000E949B0388E192E00E94FD0360E285E082
:100A10000E949B038FE692E00E94FD03089560E030
:100A200070E08CE792E00E94470490935603809315
:100A300055039093460380934503BC0188E192E0FF
:100A40000E94470490934A038093490360915503A1
:100A50007091560386E892E00E9447049093480301
:100A600080934703609155037091560386E592E0A9
:100A70000E9447049093540380935303609155035D
:100A8000709156038AE992E00E94470490935803BC
:100A900080935703609155037091560381E592E06E
:100AA0000E94470490934403809343036091490359
:100AB00070914A0340E080915503909156030E9443
:100AC0007704609147037091480341E0809155039A
:100AD000909156030E9477046091530370915403E0
:100AE00042E080915503909156030E9477046091F3
:100AF00057037091580343E080915503909156033A
:100B00000E947704609143037091440344E0809114
:100B10005503909156030E9477046BE974E080912D
:100B20005503909156030E94850460E174E0809122
:100B3000490390914A030E9485046BE174E080911F
:100B40004703909148030E94850466E274E0809117
:100B50005303909154030E94850461E374E08091F3
:100B60005703909158030E9485046CE374E08091D0
:100B70004303909144030E9485040E94F4046FE0B3
:100B800083E00E94D00308950E942802EBE4F3E082
:100B90002083318342835383648375838683978361
:100BA000E0914503F0914603808191818C579240FA
:100BB00009F054C0209151033091520382E020315A
:100BC0003807A9F480914003843088F480FD04C084
:100BD00080E00E94890405C0869560E08F5F0E94D6
:100BE0009B04809140038F5F8093400317C0255181
:100BF0003240A1F480914003882381F080FF04C03B
:100C000081E00E94890405C0869560E081500E94C1
:100C10009B048091400381508093400380914F0357
:100C20009091500386509240A9F50E947204209141
:100C3000400330E02E5F3F4F220F331F820F931F80
:100C4000FC01808191810E946D040E947204DC018C
:100C50001E96ED91FC911F9709951CC080914F0342
:100C60009091500381509240A9F40E947204FC01BB
:100C7000828193810E946D040E947204DC011E96A1
:100C8000ED91FC911F9780914003869561E070E0A3
:100C900090E00995BFE3EDE0F3E0B150E040F040B3
:100CA000E1F700C00000089580EB87BB81E58DB9B6
:100CB00008958FB9779BFECF8FB1089588B38F7E4B
:100CC00088BB089588B3806188BB08950E945E0642
:100CD00080EC0E9459060E9462060895CF93C82FA7
:100CE0000E945E0683E00E9459068C2F0E945906DE
:100CF00080E00E945906C82F0E9462068C2FCF9177
:100D000008951F93CF93DF93182FD62FC42F0E94DF
:100D10005E0685E00E945906812F0E9459068D2F9C
:100D20000E9459068C2F0E9459060E946206DF918C
:100D3000CF911F9108950E9454060E94660640E8D4
:100D400060EE8FE00E9481068EE00E946E06807E3B
:100D5000803831F089EA92E00E947D0881E00895B0
:100D600041E06FEF8AE20E94810641EB6FEF89E27A
:100D70000E94810645E06FEF88E20E94810640E410
:100D800060EE8FE00E94810643E063E08BE20E9408
:100D9000810680E0089580E895E20E94EF0186E0F8
:100DA00091E090936103809360030E94FD010E9493
:100DB0000E020E943D030E94A4030E940F050E94A0
:100DC0009B060E94C40585E393E09F938F930E9446
:100DD00067080F900F90F5CFA29FB001B39FC0019D
:100DE000A39F700D811D1124911DB29F700D811D57
:100DF0001124911D08950F931F93CF93DF93823099
:100E0000910510F482E090E0E0915C03F0915D03C5
:100E100020E030E0A0E0B0E0309719F1408151814E
:100E20000281138148175907C8F08417950769F4A0
:100E3000109731F012960C93129713961C9327C0BB
:100E400000935C0310935D0322C02115310519F056
:100E50004217530718F49A01BD01EF01DF01F801B1
:100E6000DBCF21153105F9F0281B390B2430310572
:100E700080F48A819B816115710521F0FB019383C8
:100E8000828304C090935D0380935C03FE013296DD
:100E900044C0FE01E20FF31F819391932250310968
:100EA000398328833AC020915A0330915B03232B66
:100EB00041F4209102013091030130935B032093B0
:100EC0005A0320910001309101012115310541F4AF
:100ED0002DB73EB74091040150910501241B350BFD
:100EE000E0915A03F0915B03E217F307A0F42E1B85
:100EF0003F0B2817390778F0AC014E5F5F4F24177E
:100F0000350748F04E0F5F1F50935B0340935A0321
:100F10008193919302C0E0E0F0E0CF01DF91CF91A7
:100F20001F910F910895CF93DF93009709F481C02B
:100F3000FC01329713821282A0915C03B0915D0391
:100F4000109781F420813181820F931F20915A03E1
:100F500030915B032817390751F5F0935B03E09359
:100F60005A0367C0ED0120E030E0CE17DF0740F400
:100F70004A815B819E0141155105F1F0EA01F5CFEF
:100F8000D383C28340815181840F951FC817D9072D
:100F900059F488819981840F951F029691838083EB
:100FA0008A819B81938382832115310529F4F093F3
:100FB0005D03E0935C033DC0E901FB83EA83499153
:100FC0005991C40FD51FEC17FD0761F48081918101
:100FD000840F951F0296E90199838883828193810A
:100FE0009B838A83E0E0F0E012968D919C911397A9
:100FF000009719F0FD01DC01F7CF8D919C911197BD
:101000009D012E5F3F4F820F931F20915A03309115
:101010005B032817390769F4309729F410925D03B0
:1010200010925C0302C013821282B0935B03A09300
:101030005A03DF91CF9108950F931F93CF93DF93BE
:10104000009731F46115710519F480E090E03AC021
:101050008B01EC016EE070E081E090E00E948E0A6E
:10106000FC01892B91F380E883830115110571F050
:101070001387028781E8838380915E0390915F03E9
:10108000892B21F4F0935F03E0935E032097C9F06E
:10109000D187C08783818260838380916003909130
:1010A0006103892B71F4F0936103E09360038091F5
:1010B000620390916303892B21F4F0936303E0931F
:1010C0006203CF01DF91CF911F910F910895A0E0AE
:1010D000B0E0EDE6F8E00C94710BAE014B5F5F4FB2
:1010E000FA0161917191AF01809160039091610368
:1010F0000E94AD08E2E00C948D0B0F931F93CF93E9
:10110000DF93E0916003F0916103238121FF1BC015
:101110008C01D0E0C0E0F80181918F016091600303
:1011200070916103DB011896ED91FC91199788236A
:1011300031F00995892B79F3DFEFCFEFECCF8AE01F
:101140000995892B19F08FEF9FEF02C08D2F9C2FEF
:10115000DF91CF911F910F910895ABE0B0E0E3EBE9
:10116000F8E00C94610B6C017B018A01FC01178291
:101170001682838181FFCCC1CE0101963C01F6012C
:101180009381F70193FD859193FF81917F018823DE
:1011900009F4BAC1853239F493FD859193FF8191A9
:1011A0007F01853229F4B60190E00E94C70AE7CF9B
:1011B000912C212C312CFFE1F315D8F08B3279F0F2
:1011C00038F4803279F08332A1F4232D20611DC0E0
:1011D0008D3261F0803369F4232D216016C0832D98
:1011E0008260382EE32DE4603E2E2AC0F32DF86095
:1011F0001DC037FC2DC020ED280F2A3040F08E3264
:10120000B9F436FC81C1232D2064322E19C036FE7C
:1012100006C08AE0989E200D1124922E11C0EAE0AB
:101220002E9E200D1124222EF32DF0623F2E08C099
:101230008C3621F4832D8068382E02C0883641F424
:10124000F70193FD859193FF81917F018111B3CFC8
:10125000982F9F7D9554933028F40C5F1F4F9FE388
:1012600099830DC0833631F0833771F0833509F0EF
:1012700059C021C0F801808189830E5F1F4F8824E7
:101280008394912C530113C02801F2E04F0E511C9E
:10129000F801A080B18036FE03C0692D70E002C065
:1012A0006FEF7FEFC5010E94BC0A4C018201F32D54
:1012B000FF773F2E16C0280122E0420E511CF80194
:1012C000A080B18036FE03C0692D70E002C06FEFD0
:1012D0007FEFC5010E94AA0A4C01F32DF0683F2E52
:1012E000820133FC1BC0822D90E088169906B0F471
:1012F000B60180E290E00E94C70A2A94F4CFF5017B
:1013000037FC859137FE81915F01B60190E00E9424
:10131000C70A21102A9421E0821A910881149104AD
:1013200071F7E8C0843611F0893641F5F80137FECF
:1013300007C060817181828193810C5F1F4F08C05B
:1013400060817181072E000C880B990B0E5F1F4F77
:10135000F32DFF763F2E97FF09C0909580957095ED
:1013600061957F4F8F4F9F4FF0683F2E2AE030E00E
:10137000A3010E94030B882E861845C0853731F4DF
:10138000232D2F7EB22E2AE030E025C0932D997FA9
:10139000B92E8F36C1F018F4883579F0B5C0803792
:1013A00019F0883721F0B0C0E92FE061BE2EB4FEFD
:1013B0000DC0FB2DF460BF2E09C034FE0AC0292FDA
:1013C0002660B22E06C028E030E005C020E130E003
:1013D00002C020E132E0F801B7FE07C060817181F0
:1013E000828193810C5F1F4F06C06081718180E014
:1013F00090E00E5F1F4FA3010E94030B882E8618FA
:10140000FB2DFF773F2E36FE0DC0232D2E7FA22E03
:10141000891458F434FE0BC032FC09C0832D8E7E33
:10142000A82E05C0B82CA32C03C0B82C01C0B92C21
:10143000A4FE0FC0FE01E80DF11D8081803321F470
:101440009A2D997EA92E09C0A2FE06C0B394B3942A
:1014500004C08A2D867809F0B394A3FC11C0A0FEC5
:1014600006C0B21488F4280C922C9B180EC0B2143B
:1014700060F4B60180E290E00E94C70AB394F7CF0F
:10148000B21418F42B1802C0982C212CA4FE10C002
:10149000B60180E390E00E94C70AA2FE17C0A1FC3B
:1014A00003C088E790E002C088E590E0B6010CC078
:1014B0008A2D867859F0A1FE02C08BE201C080E23D
:1014C000A7FC8DE2B60190E00E94C70A891438F4A7
:1014D000B60180E390E00E94C70A9A94F7CF8A94FD
:1014E000F301E80DF11D8081B60190E00E94C70A6A
:1014F0008110F5CF222009F442CEB60180E290E0BF
:101500000E94C70A2A94F6CFF6018681978102C00D
:101510008FEF9FEF2B96E2E10C947D0B0F931F93BF
:10152000CF93DF93869F8001879F100D969F100DAC
:101530001124C8010E94FB06EC01009729F0A801C4
:1015400060E070E00E94B50ACE01DF91CF911F915B
:101550000F910895FC010590615070400110D8F77B
:10156000809590958E0F9F1F0895DC0101C06D93AB
:1015700041505040E0F70895FC01615070400190E7
:101580000110D8F7809590958E0F9F1F08950F93A7
:101590001F93CF93DF93FB01238121FD03C08FEFC6
:1015A0009FEF2CC022FF16C04681578124813581D0
:1015B0004217530744F4A081B1819D012F5F3F4F33
:1015C000318320838C93268137812F5F3F4F378370
:1015D000268314C08B01EC01FB010084F185E02D12
:1015E0000995892BE1F6D80116968D919C91179754
:1015F000019617969C938E931697CE01DF91CF910B
:101600001F910F910895FA01AA27283051F1203136
:1016100081F1E8946F936E7F6E5F7F4F8F4F9F4F86
:10162000AF4FB1E03ED0B4E03CD0670F781F891FC8
:101630009A1FA11D680F791F8A1F911DA11D6A0F96
:10164000711D811D911DA11D20D009F468943F9149
:101650002AE0269F11243019305D3193DEF6CF0148
:101660000895462F4770405D4193B3E00FD0C9F70E
:10167000F6CF462F4F70405D4A3318F0495D31FD7B
:101680004052419302D0A9F7EACFB4E0A6959795CE
:10169000879577956795BA95C9F7009761057105A4
:1016A00008959B01AC010A2E0694579547953795EE
:1016B0002795BA95C9F7620F731F841F951FA01D48
:1016C00008952F923F924F925F926F927F928F92E6
:1016D0009F92AF92BF92CF92DF92EF92FF920F93C1
:1016E0001F93CF93DF93CDB7DEB7CA1BDB0B0FB6CB
:1016F000F894DEBF0FBECDBF09942A883988488888
:101700005F846E847D848C849B84AA84B984C8841D
:10171000DF80EE80FD800C811B81AA81B981CE0F14
:10172000D11D0FB6F894DEBF0FBECDBFED010895F9
:04173000F894FFCF5B
:101734000000640320000000000200000000DF013C
:10174400000000005374617274696E672053524143
:101754004D20746573742E2E2E00577269746520A3
:101764007068617365206572726F723A206578746F
:101774005F72616D5B2534645D203D2025303258F5
:10178400202873686F756C64206265202530325898
:10179400290A0052657472696576616C207068610B
:1017A4007365206572726F723A206578745F726136
:1017B4006D5B2534645D203D20253032582028732C
:1017C400686F756C642062652025303258290A00E0
:1017D4005352414D207465737420636F6D706C6552
:1017E4007465642077697468200A253464206572FE
:1017F400726F727320696E207772697465207068E5
:1018040061736520616E64200A25346420657272F8
:101814006F727320696E2072657472696576616C8B
:101824002070686173650A0A004E45555452414C54
:10183400004C454654005249474854002D2D2D0074
:10184400444F574E00555000506C617900686967E9
:101854006873636F72650063616C69627261746559
:101864000073657420646966660062796520627934
:10187400650050494E4720504F4E472047414D4543
:1018840000517569740043616C696272617465002A
:1018940053657420646966666963756C7479005372
:1018A40065652F7265736574206873004D61696E98
:1018B400204D656E75005365652F52657365742000
:1018C4004869676873636F7265005365742044697F
:1018D40066666963756C7479004D435032353135F1
:1018E400206973206E6F7420696E20636F6E666961
:1018F4006775726174696F6E206D6F6465206166CF
:10190400746572207265736574000A5354415254AD
:101914002043414E204D6573736167652070726981
:101924006E742E0049443A202575200A004C656ED9
:101934006774683A202575200A005061636B6167FB
:1019440065205B25645D3A202564200A00454E44E9
:101954002043414E204D6573736167652070726941
:101964006E742E0A00504F52434F5244494F0000A8
:00000001FF
