S00E000074696B746F6B2E7372656380
S11300000C94B4010C94D1010C94D1010C94D10141
S11300100C94D1010C94D1010C94D1010C94D10114
S11300200C94D1010C94D1010C94D1010C94D10104
S11300300C94D1010C94D1010C94D1010C94D101F4
S11300400C94D1010C94D1010C94D1010C94D101E4
S11300500C94D1010C94D1010C94D1010C94D101D4
S11300600C94D1010C94D1010C94D1010C94D101C4
S1130070000000000000000000065F5F06000000B2
S11300800007070007070000147F7F147F7F140018
S1130090242E6B6B3A120000466630180C66620020
S11300A0307A4F5D377A48000407030000000000EF
S11300B0001C3E63410000000041633E1C00000040
S11300C0082A3E1C1C3E2A0808083E3E0808000078
S11300D000A0E0600000000008080808080800000C
S11300E000006060000000006030180C060301008E
S11300F03E7F594D7F3E000042427F7F40400000DA
S1130100627359496F660000226349497F360000D3
S1130110181C16137F7F1000276745457D390000A2
S11301203C7E4B4979300000036371190F070000CE
S1130130367F49497F360000064F49693F1E00005B
S113014000006C6C0000000000A0EC6C00000000DB
S1130150081C366341000000141414141414000025
S1130160004163361C080000020351590F060000C9
S11301703E7F415D5D1F1E007C7E13137E7C00006C
S1130180417F7F49497F36001C3E63414163220021
S1130190417F7F41637F1C00417F7F495D41630054
S11301A0417F7F491D0103001C3E6341517372006E
S11301B07F7F08087F7F000000417F7F41000000AF
S11301C0307040417F3F0100417F7F081C7763000E
S11301D0417F7F41406070007F7F060C067F7F0077
S11301E07F7F060C187F7F001C3E6341633E1C002A
S11301F0417F7F49090F06001E3F21717F5E000089
S1130200417F7F19396F460026674D597B320000C4
S113021003417F7F410300007F7F40407F7F0000D8
S11302201F3F60603F1F00007F7F3018307F7F00DA
S113023063771C081C776300074F78784F0700002A
S11302406773594D47637100007F7F41410000008F
S11302500103060C183060000041417F7F0000005C
S1130260080C0603060C0800808080808080808053
S11302700000030704000000207454543C7840003C
S1130280413F7F44447C3800387C44446C2800005F
S1130290307848493F7F4000387C54545C18000053
S11302A0487E7F490302000098BCA4A4F87C0400A3
S11302B0417F7F08047C780000447D7D400000007D
S11302C040C484FD7D000000417F7F10386C4400F1
S11302D000417F7F400000007C7C0C180C7C78007F
S11302E07C7C04047C780000387C44447C38000026
S11302F084FCF8A4243C1800183C24A4F8FC8400D2
S1130300447C78441C180000485C54547424000055
S113031000043E7F442400003C7C40403C7C400080
S11303201C3C60603C1C00003C7C6030607C3C00F9
S1130330446C3810386C44009CBCA0A0FC7C0000C9
S11303404C64745C4C64000008083E774141000032
S113035000000077770000004141773E0808000064
S1130360020301030203010011241FBECFEFD4E0F6
S1130370DEBFCDBF13E0A0E0B1E0E8EEF2E102C0E1
S113038005900D92A633B107D9F723E0A6E3B3E0B5
S113039001C01D92A835B207E1F70E9467070C94CB
S11303A072090C9400005F9B03C08CB190E0089527
S11303B080E090E008955D9BFECF8CB90895CF93C3
S11303C0C82F8A3021F48DE090E00E94DB018C2F4D
S11303D090E00E94DB0180E090E0CF91089510BC92
S11303E08FE189B988E18AB98EE880BD63ED71E057
S11303F08FED91E00E94D408089585B7806885BF89
S113040080B7806280BF0895FA01E60FF71F8083EA
S11304100895860F971FFC018081089581B3806140
S113042081BBEBE8F0E0808180648083EAE8F0E05F
S113043080818960808310928700109286000895DD
S113044040E054E161E070E080E80E940402089515
S113045080EB87BB81E58DB908958FB9779BFECF7B
S11304608FB1089588B38F7E88BB089588B3806167
S113047088BB08950E94320280EC0E942D020E94E3
S113048036020895CF93C82F0E94320283E00E945F
S11304902D028C2F0E942D0280E00E942D02C82F75
S11304A00E9436028C2FCF910895CF93DF93D82FDB
S11304B0C62F0E94320282E00E942D028D2F0E94DC
S11304C02D028C2F0E942D020E943602DF91CF91C3
S11304D00895CF93C82F0E9432028C2F0E942D02C0
S11304E00E943602CF9108951F93CF93DF93182F64
S11304F0D62FC42F0E94320285E00E942D02812F44
S11305000E942D028D2F0E942D028C2F0E942D02FD
S11305100E943602DF91CF911F9108950E94280214
S11305200E943A0240E860EE8FE00E9474028EE07E
S11305300E944202807E803831F089EF91E00E946F
S11305401F0981E0089545E06FEF88E20E9474027C
S113055041EB6FEF89E20E94740243E06FEF8AE29D
S11305600E94740240E060EE8FE00E94740243E057
S113057063E08BE20E94740280E00895FC017183C1
S113058060830895FC0162830895CF92DF92EF9215
S1130590FF920F931F93CF93DF937C01FC01808123
S11305A09181C82FC295CC0FC07E9C0136952795AA
S11305B036952795369527951281662371F061301B
S11305C0C1F40F2EF2E8DF2EF02D06E4D5E40F2E51
S11305D0F2E4CF2EF02D81E417C00F2EF1E8DF2EC8
S11305E0F02D06E3D5E30F2EF2E3CF2EF02D81E3B9
S11305F00BC00F2EF4E8DF2EF02D06E5D5E50F2E07
S1130600F2E5CF2EF02D81E5622F0E9455026C2F6A
S11306108C2D0E945502612F8D2F0E945502C0E03F
S1130620D0E009C0F701EC0FFD1F63818C2F800F10
S11306300E9455022196812F90E0C817D90794F3A0
S11306408D2D0E946902DF91CF911F910F91FF9030
S1130650EF90DF90CF9008950F931F93CF93DF9384
S113066000D000D000D0CDB7DEB70E94200260E0F9
S113067074E180E090E00E94090201E413E0F801D3
S1130680808360E074E180E090E00E940902F80158
S1130690818360E074E180E090E00E94090260E000
S11306A074E180E090E00E94090281EE94E00197F9
S11306B0F1F700C00000F80180819FE5980F9E309B
S11306C030F4108285E892E09383828332C0803ACA
S11306D088F4F4E68F9FC001112466EA70E00E945A
S11306E08B07E1E4F3E0645660838DE892E0938342
S11306F082831FC08F3AB0F0282F30E02A5A310984
S113070044E6429FC001439F900D112465E570E0CB
S11307100E948B07E1E4F3E0608382E992E0938333
S1130720828307C0E1E4F3E0108288E992E09383D6
S113073082838091420394E6980F9E3040F4E1E472
S1130740F3E0118285E892E09583848332C08C398A
S113075088F424E6829FC001112466EA70E00E94B6
S11307608B07E1E4F3E0645661838CE992E09583BE
S113077084831FC08A3AB0F0282F30E02A5A310906
S113078044E6429FC001439F900D112465E570E04B
S11307900E948B07E1E4F3E0618381EA92E09583B0
S11307A0848307C0E1E4F3E0118288E992E0958351
S11307B0848386E0E1E4F3E0DE01119601900D927A
S11307C08A95E1F729813A814B815C816D817E8133
S11307D080E090E026960FB6F894DEBF0FBECDBF42
S11307E0DF91CF911F910F910895CF93DF93CDB7F0
S11307F0DEB72B970FB6F894DEBF0FBECDBF0E94B5
S11308002C032093410330934203409343035093BA
S11308104403609345037093460361E070E0CE01A6
S113082001960E94BE0264E0CE0101960E94C202BB
S113083080914303909144038D58924031F4809108
S1130840410381958C831D8204C01C8280914103E5
S11308508D8380914503909146038C59924031F4E5
S11308608091420381958E831F8204C01E828091F1
S113087042038F8360E0CE0101960E94C5022B964D
S11308800FB6F894DEBF0FBECDBFDF91CF910895B0
S11308908093001008958093001208958EEA0E94B8
S11308A0480481EA0E9448048AED0E94480482E1D7
S11308B00E94480488EC0E94480488EA0E94480484
S11308C08FE30E94480485ED0E94480480E80E945A
S11308D0480481E80E94480480E50E94480489EDA8
S11308E00E94480481E20E94480480E20E94480475
S11308F082E00E9448048BED0E94480480E30E9439
S113090048048DEA0E94480480E00E94480484EA76
S11309100E94480487EA0E9448048FEA0E9448041F
S113092083ED0E94480482E00E94480408958830C0
S113093018F480550E9448040895CF93882354F0F6
S1130940C82F8F700E9448048C2F82958F70805F0F
S11309500E944804CF910895CF93C62F0E94970414
S11309608C2F0E949D04CF910895CF93DF93D0E004
S11309700DC060E08D2F0E94AC04C0E004C080E094
S11309800E944B04CF5FCC23D4F7DF5FD83088F3C9
S1130990DF91CF910895CF93DF93D2E00DC060E053
S11309A08D2F0E94AC04C0E004C080E00E944B0480
S11309B0CF5FC531D0F3DF5FD63088F3DF91CF91BD
S11309C008950E94AC0488E10E944B0488E10E94CF
S11309D04B048EE70E944B048CE30E944B0488E195
S11309E00E944B040895CF93DF93D82FC0E011C029
S11309F0ED2FF0E0B097EE0FFF1FEE0FFF1FEE0F8D
S1130A00FF1FEC0FF11DE059FF4F84910E944B042E
S1130A10CF5FC83068F3DF91CF9108950F931F9390
S1130A20CF938C01C0E003C00E94F304CF5FF801B0
S1130A30EC0FF11D80818111F7CFCF911F910F91A0
S1130A4008950E94B50460E283E00E94AC0484EA45
S1130A5092E00E940E0508950E94B50460E283E0CE
S1130A600E94AC0489EA92E00E940E0508950E9457
S1130A70B50460E283E00E94AC0483EB92E00E9440
S1130A800E0508950E94B50460E283E00E94AC0460
S1130A908DEB92E00E940E0508950E94B50460E279
S1130AA083E00E94AC0486EC92E00E940E05089557
S1130AB00F931F93CF93DF938C01EB0181E190E0BF
S1130AC00E94B307FC0111830083D383C28320E017
S1130AD030E00AC0F9013296EE0FFF1FE80FF91F4C
S1130AE0118210822F5F3F4F253031059CF3FC01AA
S1130AF0108ADF91CF911F910F91089590933C0339
S1130B0080933B03089580913B0390913C030895A7
S1130B10242F30E02E5F3F4F220F331F820F931F8D
S1130B20FC0171836083FB01408B0895FC0177878E
S1130B3066870895811107C00E94CB046FE085E0A9
S1130B400E94E1040895813031F40E94CB046FE0E7
S1130B5083E00E94E1040895CF93DF93D82FC62F3A
S1130B608091490390914A030E947E050E94B50436
S1130B7068E081E00E94AC048EEC92E00E940E05D5
S1130B80C11104C0C0913603C17005C0C0913603C1
S1130B9081E0C827C170D23061F460E283E00E9432
S1130BA0AC048DED92E00E940E058C2F0E949A05F4
S1130BB029C0D130A1F460E283E00E94AC0482EE4B
S1130BC092E00E940E0560E285E00E94AC048CEE87
S1130BD092E00E940E058C2F0E949A0513C060E2D9
S1130BE083E00E94AC0484EA92E00E940E0560E275
S1130BF085E00E94AC048BEF92E00E940E058C2FDE
S1130C000E949A05DF91CF9108950E94B50468E08F
S1130C1081E00E94AC048EEC92E00E940E0560E23A
S1130C2083E00E94AC0484EA92E00E940E0560E234
S1130C3085E00E94AC048BEF92E00E940E050895BB
S1130C4060E070E088E093E00E94580590934A03C6
S1130C508093490390933C0380933B03BC0184EA53
S1130C6092E00E9458059093400380933F03609163
S1130C70490370914A0382E193E00E9458059093DE
S1130C803E0380933D036091490370914A0382EED1
S1130C9092E00E9458059093480380934703609123
S1130CA0490370914A0386E293E00E9458059093A9
S1130CB04C0380934B036091490370914A038DED7B
S1130CC092E00E94580590933A038093390360910F
S1130CD03F037091400340E08091490390914A039F
S1130CE00E94880560913D0370913E0341E080912C
S1130CF0490390914A030E948805609147037091CB
S1130D00480342E08091490390914A030E94880578
S1130D1060914B0370914C0343E08091490390919F
S1130D204A030E9488056091390370913A0344E0B4
S1130D308091490390914A030E9488056CEA75E00A
S1130D408091490390914A030E94960561E275E0FF
S1130D5080913F03909140030E9496056CE275E0F8
S1130D6080913D0390913E030E94960567E375E0F0
S1130D7080914703909148030E94960562E475E0D0
S1130D8080914B0390914C030E9496056DE475E0AD
S1130D908091390390913A030E9496050E940506BA
S1130DA06FE083E00E94E10408950E942C032093E5
S1130DB041033093420340934303509344036093AD
S1130DC0450370934603E0913B03F0913C0380811B
S1130DD091818850934009F054C02091450330918B
S1130DE0460382E02C393807A9F480913603843015
S1130DF088F480FD04C080E00E949A0505C08695B1
S1130E0060E08F5F0E94AC05809136038F5F809312
S1130E10360317C0215A3240A1F480913603882347
S1130E2081F080FF04C081E00E949A0505C0869588
S1130E3060E081500E94AC0580913603815080931C
S1130E403603809143039091440382599240A9F55B
S1130E500E9483052091360330E02E5F3F4F220F1E
S1130E60331F820F931FFC01808191810E947E05B4
S1130E700E948305DC011E96ED91FC911F97099554
S1130E801CC080914303909144038D589240A9F46F
S1130E900E948305FC01828193810E947E050E9449
S1130EA08305DC011E96ED91FC911F97809136031A
S1130EB0869561E070E090E00995BFE3EDE0F3E032
S1130EC0B150E040F040E1F700C00000089580E830
S1130ED095E20E94EF0186E091E0909355038093A0
S1130EE054030E94FD010E940E020E944E040E94BF
S1130EF0B5040E9420060E948E020E94D5060E941C
S1130F00F5032FE38DE093E0215080409040E1F71A
S1130F1000C00000F2CF97FB072E16F4009407D010
S1130F2077FD09D00E949F0707FC05D03EF49095F9
S1130F3081959F4F0895709561957F4F0895AA1BE1
S1130F40BB1B51E107C0AA1FBB1FA617B70710F0B0
S1130F50A61BB70B881F991F5A95A9F780959095E2
S1130F60BC01CD0108950F931F93CF93DF9382307B
S1130F70910510F482E090E0E0915003F091510368
S1130F8020E030E0A0E0B0E0309719F140815181D9
S1130F900281138148175907C8F08417950769F42B
S1130FA0109731F012960C93129713961C9327C046
S1130FB0009350031093510322C02115310519F0F9
S1130FC04217530718F49A01BD01EF01DF01F8013C
S1130FD0DBCF21153105F9F0281B390B24303105FD
S1130FE080F48A819B816115710521F0FB01938353
S1130FF0828304C09093510380935003FE01329680
S113100044C0FE01E20FF31F8193919322503109F2
S1131010398328833AC020914E0330914F03232B08
S113102041F4209102013091030130934F03209346
S11310304E0320910001309101012115310541F445
S11310402DB73EB74091040150910501241B350B87
S1131050E0914E03F0914F03E217F307A0F42E1B27
S11310603F0B2817390778F0AC014E5F5F4F241708
S1131070350748F04E0F5F1F50934F0340934E03C4
S11310808193919302C0E0E0F0E0CF01DF91CF9132
S11310901F910F910895CF93DF93009709F481C0B6
S11310A0FC01329713821282A0915003B091510334
S11310B0109781F420813181820F931F20914E0378
S11310C030914F032817390751F5F0934F03E093FC
S11310D04E0367C0ED0120E030E0CE17DF0740F497
S11310E04A815B819E0141155105F1F0EA01F5CF7A
S11310F0D383C28340815181840F951FC817D907B8
S113110059F488819981840F951F02969183808375
S11311108A819B81938382832115310529F4F0937D
S11311205103E09350033DC0E901FB83EA834991F5
S11311305991C40FD51FEC17FD0761F4808191818B
S1131140840F951F0296E901998388838281938194
S11311509B838A83E0E0F0E012968D919C91139733
S1131160009719F0FD01DC01F7CF8D919C91119747
S11311709D012E5F3F4F820F931F20914E033091AC
S11311804F032817390769F4309729F41092510353
S11311901092500302C013821282B0934F03A093A3
S11311A04E03DF91CF9108950F931F93CF93DF9355
S11311B0009731F46115710519F480E090E03AC0AC
S11311C08B01EC016EE070E081E090E00E944F0939
S11311D0FC01892B91F380E883830115110571F0DB
S11311E01387028781E8838380915203909153038C
S11311F0892B21F4F0935303E09352032097C9F011
S1131200D187C087838182608383809154039091C6
S11312105503892B71F4F0935503E09354038091A3
S1131220560390915703892B21F4F0935703E093CD
S11312305603CF01DF91CF911F910F9108950F9322
S11312401F93CF93DF93E0915403F09155032381CF
S113125021FF1BC08C01D0E0C0E0F80181918F0117
S11312606091540370915503DB011896ED91FC9144
S11312701997882331F00995892B79F3DFEFCFEFA4
S1131280ECCF8AE00995892B19F08FEF9FEF02C00C
S11312908D2F9C2FDF91CF911F910F9108950F9364
S11312A01F93CF93DF93869F8001879F100D969F96
S11312B0100D1124C8010E94B307EC01009729F016
S11312C0A80160E070E00E946B09CE01DF91CF912C
S11312D01F910F910895DC0101C06D93415050405E
S10B12E0E0F70895F894FFCF34
S11312E80000580320000000000200000000DF0195
S11312F8000000005374617274696E672053524190
S11313084D20746573742E2E2E00577269746520EF
S11313187068617365206572726F723A20657874BB
S11313285F72616D5B2534645D203D202530325841
S1131338202873686F756C642062652025303258E4
S1131348290A0052657472696576616C2070686157
S11313587365206572726F723A206578745F726182
S11313686D5B2534645D203D202530325820287378
S1131378686F756C642062652025303258290A002C
S11313885352414D207465737420636F6D706C659E
S11313987465642077697468200A2534642065724A
S11313A8726F727320696E20777269746520706831
S11313B861736520616E64200A2534642065727245
S11313C86F727320696E2072657472696576616CD8
S11313D82070686173650A0A004D4350323531350F
S11313E8206973206E6F7420696E20636F6E66695E
S11313F86775726174696F6E206D6F6465206166CC
S1131408746572207265736574000A5354415254AA
S11314182043414E204D657373616765207072697E
S11314286E742E0049443A202575200A004C656ED6
S11314386774683A202575200A005061636B6167F8
S113144865205B25645D3A202564200A00454E44E6
S11314582043414E204D657373616765207072693E
S11314686E742E0A004E45555452414C004C454664
S113147854005249474854002D2D2D00444F574ECF
S113148800555000506C6179006869676873636F30
S113149872650063616C6962726174650073657476
S11314A8206469666600627965206279650050493E
S11314B84E4720504F4E472047414D4500517569CE
S11314C8740043616C6962726174650053657420C9
S11314D8646966666963756C7479005365652F720F
S11314E865736574206873004D61696E204D656E7F
S11314F875005365652F526573657420486967687C
S113150873636F7265005365742044696666696322
S1091518756C74790000FB
S9030000FC
