S00E000074696B746F6B2E7372656380
S11300000C94B4010C94D1010C94D1010C94D10141
S11300100C94D1010C94D1010C94D1010C94D10114
S11300200C94D1010C94D1010C94D1010C94D10104
S11300300C94D1010C94D1010C94D1010C94D101F4
S11300400C94D1010C94D1010C94D1010C94D101E4
S11300500C94D1010C94D1010C94D1010C94D101D4
S11300600C94D1010C94D1010C94D1010C94D101C4
S1130070000000000000000000065F5F06000000B2
S11300800007070007070000147F7F147F7F140018
S1130090242E6B6B3A120000466630180C66620020
S11300A0307A4F5D377A48000407030000000000EF
S11300B0001C3E63410000000041633E1C00000040
S11300C0082A3E1C1C3E2A0808083E3E0808000078
S11300D000A0E0600000000008080808080800000C
S11300E000006060000000006030180C060301008E
S11300F03E7F594D7F3E000042427F7F40400000DA
S1130100627359496F660000226349497F360000D3
S1130110181C16137F7F1000276745457D390000A2
S11301203C7E4B4979300000036371190F070000CE
S1130130367F49497F360000064F49693F1E00005B
S113014000006C6C0000000000A0EC6C00000000DB
S1130150081C366341000000141414141414000025
S1130160004163361C080000020351590F060000C9
S11301703E7F415D5D1F1E007C7E13137E7C00006C
S1130180417F7F49497F36001C3E63414163220021
S1130190417F7F41637F1C00417F7F495D41630054
S11301A0417F7F491D0103001C3E6341517372006E
S11301B07F7F08087F7F000000417F7F41000000AF
S11301C0307040417F3F0100417F7F081C7763000E
S11301D0417F7F41406070007F7F060C067F7F0077
S11301E07F7F060C187F7F001C3E6341633E1C002A
S11301F0417F7F49090F06001E3F21717F5E000089
S1130200417F7F19396F460026674D597B320000C4
S113021003417F7F410300007F7F40407F7F0000D8
S11302201F3F60603F1F00007F7F3018307F7F00DA
S113023063771C081C776300074F78784F0700002A
S11302406773594D47637100007F7F41410000008F
S11302500103060C183060000041417F7F0000005C
S1130260080C0603060C0800808080808080808053
S11302700000030704000000207454543C7840003C
S1130280413F7F44447C3800387C44446C2800005F
S1130290307848493F7F4000387C54545C18000053
S11302A0487E7F490302000098BCA4A4F87C0400A3
S11302B0417F7F08047C780000447D7D400000007D
S11302C040C484FD7D000000417F7F10386C4400F1
S11302D000417F7F400000007C7C0C180C7C78007F
S11302E07C7C04047C780000387C44447C38000026
S11302F084FCF8A4243C1800183C24A4F8FC8400D2
S1130300447C78441C180000485C54547424000055
S113031000043E7F442400003C7C40403C7C400080
S11303201C3C60603C1C00003C7C6030607C3C00F9
S1130330446C3810386C44009CBCA0A0FC7C0000C9
S11303404C64745C4C64000008083E774141000032
S113035000000077770000004141773E0808000064
S1130360020301030203010011241FBECFEFD4E0F6
S1130370DEBFCDBF13E0A0E0B1E0ECE5FBE102C0DD
S113038005900D92AC35B107D9F723E0ACE5B3E0A5
S113039001C01D92AB38B207E1F70E94A8080C9483
S11303A0AC0D0C9400005F9B03C08CB190E00895E9
S11303B080E090E008955D9BFECF8CB90895CF93C3
S11303C0C82F8A3021F48DE090E00E94DB018C2F4D
S11303D090E00E94DB0180E090E0CF91089510BC92
S11303E08FE189B988E18AB98EE880BD63ED71E057
S11303F08FED91E00E940E0A089585B7806885BF4D
S113040080B7806280BF0895FA01E60FF71F8083EA
S11304100895860F971FFC018081089581B3806140
S113042081BBEBE8F0E0808180648083EAE8F0E05F
S113043080818960808310928700109286000895DD
S113044040E054E161E070E080E80E940402089515
S113045080EB87BB81E58DB908958FB9779BFECF7B
S11304608FB1089588B38F7E88BB089588B3806167
S113047088BB08950E94320280EC0E942D020E94E3
S113048036020895CF93C82F0E94320283E00E945F
S11304902D028C2F0E942D0280E00E942D02C82F75
S11304A00E9436028C2FCF910895CF93DF93D82FDB
S11304B0C62F0E94320282E00E942D028D2F0E94DC
S11304C02D028C2F0E942D020E943602DF91CF91C3
S11304D00895CF93C82F0E9432028C2F0E942D02C0
S11304E00E943602CF9108951F93CF93DF93182F64
S11304F0D62FC42F0E94320285E00E942D02812F44
S11305000E942D028D2F0E942D028C2F0E942D02FD
S11305100E943602DF91CF911F9108950E94280214
S11305200E943A0240E860EE8FE00E9474028EE07E
S11305300E944202807E803831F089EF91E00E946F
S11305406F0A81E0089545E06FEF88E20E9474022B
S113055041EB6FEF89E20E94740243E06FEF8AE29D
S11305600E94740240E060EE8FE00E94740243E057
S113057063E08BE20E94740280E00895FC017183C1
S113058060830895FC0162830895CF92DF92EF9215
S1130590FF920F931F93CF93DF937C01FC01808123
S11305A09181C82FC295CC0FC07E9C0136952795AA
S11305B036952795369527951281662371F061301B
S11305C0C1F40F2EF2E8DF2EF02D06E4D5E40F2E51
S11305D0F2E4CF2EF02D81E417C00F2EF1E8DF2EC8
S11305E0F02D06E3D5E30F2EF2E3CF2EF02D81E3B9
S11305F00BC00F2EF4E8DF2EF02D06E5D5E50F2E07
S1130600F2E5CF2EF02D81E5622F0E9455026C2F6A
S11306108C2D0E945502612F8D2F0E945502C0E03F
S1130620D0E009C0F701EC0FFD1F63818C2F800F10
S11306300E9455022196812F90E0C817D90794F3A0
S11306408D2D0E946902DF91CF911F910F91FF9030
S1130650EF90DF90CF900895EF92FF920F931F9346
S1130660CF937C018CE20E944202C82FC27081FFAA
S113067005C040E062E08CE20E947402CC2361F188
S113068081E70E944202C82FCC0FCC0FCC0F82E727
S11306900E9442028295869587708C2B682F70E0A9
S11306A0C7010E94BE0285E70E944202682F6F7054
S11306B0C7010E94C202C0E00BC00C2F10E086E705
S11306C08C0F0E944202F701E00FF11F8383CF5F7A
S11306D0F7018281C81788F3CF911F910F91FF9082
S11306E0EF9008950F931F93CF93DF9300D000D022
S11306F000D0CDB7DEB70E94200260E074E180E054
S113070090E00E94090204E713E0F801808360E0AE
S113071074E180E090E00E940902F801818360E0C6
S113072074E180E090E00E94090260E074E180E0FE
S113073090E00E94090281EE94E00197F1F700C075
S11307400000F80180819FE5980F9E3030F41082FC
S113075085E892E09383828332C0803A88F4F4E699
S11307608F9FC001112466EA70E00E94C508E4E787
S1130770F3E0645660838DE892E0938382831FC024
S11307808F3AB0F0282F30E02A5A310944E6429FCC
S1130790C001439F900D112465E570E00E94C508D7
S11307A0E4E7F3E0608382E992E09383828307C005
S11307B0E4E7F3E0108288E992E0938382838091F6
S11307C0750394E6980F9E3040F4E4E7F3E0118259
S11307D085E892E09583848332C08C3988F424E6DA
S11307E0829FC001112466EA70E00E94C508E4E714
S11307F0F3E0645661838CE992E0958384831FC09F
S11308008A3AB0F0282F30E02A5A310944E6429F50
S1130810C001439F900D112465E570E00E94C50856
S1130820E4E7F3E0618381EA92E09583848307C07F
S1130830E4E7F3E0118288E992E09583848386E01B
S1130840E4E7F3E0DE01119601900D928A95E1F759
S113085029813A814B815C816D817E8180E090E0C9
S113086026960FB6F894DEBF0FBECDBFDF91CF91B1
S11308701F910F910895EF92FF920F931F93CF93BF
S11308800E94200260E074E180E090E00E9409028E
S113089060E074E180E090E00E94090260E074E1AD
S11308A080E090E00E940902C4E6C89FC0011124C0
S11308B0EE24EA94F12CB7010E94C5080FE513E079
S11308C0F801608360E074E180E090E00E94090236
S11308D0C89FC0011124B7010E94C508F8016183B3
S11308E081EE94E00197F1F700C0000080915F036E
S11308F090916003CF911F910F91FF90EF90089515
S113090081E088BB87B38E7F87BB089586B38170EF
S113091008951F93CF93DF93CDB7DEB72B970FB610
S1130920F894DEBF0FBECDBF0E943B0490936003DA
S113093080935F030E948604182F61E070E0CE016B
S113094001960E94BE0263E0CE0101960E94C2029B
S1130950EFE5F3E080818C8381818D831E8360E0E9
S1130960CE0101960E94C5022B960FB6F894DEBF05
S11309700FBECDBFDF91CF911F91089580930010DA
S113098008958093001208958EEA0E94BE0481EABD
S11309900E94BE048AED0E94BE0482E10E94BE044D
S11309A088EC0E94BE0488EA0E94BE048FE30E9481
S11309B0BE0485ED0E94BE0480E80E94BE0481E866
S11309C00E94BE0480E50E94BE0489ED0E94BE041C
S11309D081E20E94BE0480E20E94BE0482E00E9482
S11309E0BE048BED0E94BE0480E30E94BE048DEA27
S11309F00E94BE0480E00E94BE0484EA0E94BE04F9
S1130A0087EA0E94BE048FEA0E94BE0483ED0E941E
S1130A10BE0482E00E94BE040895883018F4805514
S1130A200E94BE040895CF93882354F0C82F8F707A
S1130A300E94BE048C2F82958F70805F0E94BE043A
S1130A40CF910895CF93C62F0E940D058C2F0E943D
S1130A501305CF910895CF93DF93D0E00DC060E0EC
S1130A608D2F0E942205C0E004C080E00E94C104D2
S1130A70CF5FCC23D4F7DF5FD83088F3DF91CF91F9
S1130A800895CF93DF93D2E00DC060E08D2F0E94D4
S1130A902205C0E004C080E00E94C104CF5FC531DC
S1130AA0D0F3DF5FD63088F3DF91CF9108950E94B1
S1130AB0220588E10E94C10488E10E94C1048EE7F6
S1130AC00E94C1048CE30E94C10488E10E94C10415
S1130AD00895CF93DF93D82FC0E011C0ED2FF0E03D
S1130AE0B097EE0FFF1FEE0FFF1FEE0FFF1FEC0F6F
S1130AF0F11DE059FF4F84910E94C104CF5FC830BB
S1130B0068F3DF91CF9108950F931F93CF938C01D6
S1130B10C0E003C00E946905CF5FF801EC0FF11D2E
S1130B2080818111F7CFCF911F910F9108951F9369
S1130B30CF93DF93CDB7DEB72B970FB6F894DEBF14
S1130B400FBECDBF0E942B0560E283E00E94220508
S1130B5080915C03811114C065E070E0CE010196C0
S1130B600E94BE0261E0CE0101960E94C20211E021
S1130B701C8360E0CE0101960E94C50210935C03C1
S1130B8084EA92E00E9484052B960FB6F894DEBFA7
S1130B900FBECDBFDF91CF911F9108950F931F9387
S1130BA0CF93DF93CDB7DEB764970FB6F894DEBF6B
S1130BB00FBECDBF0E942B0560E283E00E94220598
S1130BC080915D031F928F938CEA92E09F938F93A1
S1130BD08E010F5F1F4F1F930F930E949F0AC8013E
S1130BE00E9484050F900F900F900F900F900F901C
S1130BF064960FB6F894DEBF0FBECDBFDF91CF91E0
S1130C001F910F9108950E942B0560E283E00E94DA
S1130C10220583EB92E00E94840508950E942B052F
S1130C2060E283E00E9422058DEB92E00E9484053D
S1130C3008950E942B0560E283E00E94220586EC61
S1130C4092E00E94840508950F931F93CF93DF933E
S1130C508C01EB0181E190E00E94ED08FC0111831D
S1130C600083D383C28320E030E00AC0F9013296C6
S1130C70EE0FFF1FE80FF91F118210822F5F3F4F05
S1130C80253031059CF3FC01108ADF91CF911F912F
S1130C900F91089590915D03981710F480935D036C
S1130CA0089590936F0380936E03089580916E036B
S1130CB090916F030895242F30E02E5F3F4F220F51
S1130CC0331F820F931FFC0171836083FB01408BF0
S1130CD00895FC01778766870895811107C00E94F3
S1130CE041056FE085E00E9457050895813031F495
S1130CF00E9441056FE083E00E94570508950F9319
S1130D001F93CF93DF93CDB7DEB72B970FB6F8942D
S1130D10DEBF0FBECDBF082F162F80917C039091AC
S1130D207D030E9451060E942B0568E081E00E9429
S1130D3022058EEC92E00E94840566E070E0CE010C
S1130D4001960E94BE0261E0CE0101960E94C20299
S1130D5081E08C8360E0CE0101960E94C5021111EE
S1130D6004C010915E03117005C010915E0381E010
S1130D7018271170023061F460E283E00E942205BA
S1130D808DED92E00E948405812F0E946D0629C09A
S1130D900130A1F460E283E00E94220582EE92E039
S1130DA00E94840560E285E00E9422058CEE92E0B8
S1130DB00E948405812F0E946D0613C060E283E0C7
S1130DC00E9422058BEF92E00E94840560E285E098
S1130DD00E94220580E093E00E948405812F0E94F6
S1130DE06D062B960FB6F894DEBF0FBECDBFDF9114
S1130DF0CF911F910F910895CF93DF93FC01208130
S1130E0031812230310501F5EC0183810E944A06CB
S1130E108B811F928F938DE093E09F938F930E9419
S1130E20590A83E690E0998388830E945606FC0160
S1130E30828193810E9451060E947F0610925C0376
S1130E400F900F900F900F90DF91CF9108950E9413
S1130E502B0568E081E00E9422058EEC92E00E945E
S1130E60840560E283E00E9422058BEF92E00E94F9
S1130E70840560E285E00E94220580E093E00E9400
S1130E808405089560E070E086E293E00E94240601
S1130E9090937D0380937C0390936F0380936E0300
S1130EA0BC018BEF92E00E9424069093730380931D
S1130EB0720360917C0370917D0380E393E00E9450
S1130EC02406909371038093700360917C03709166
S1130ED07D0382EE92E00E94240690937B0380932C
S1130EE07A0360917C0370917D038EE393E00E940A
S1130EF0240690937F0380937E0360917C0370911A
S1130F007D038DED92E00E94240690936D038093FF
S1130F106C03609172037091730340E080917C03D1
S1130F2090917D030E945B06609170037091710340
S1130F3041E080917C0390917D030E945B06609167
S1130F407A0370917B0342E080917C0390917D034E
S1130F500E945B0660917E0370917F0343E0809161
S1130F607C0390917D030E945B0660916C037091F9
S1130F706D0344E080917C0390917D030E945B06A5
S1130F806FE776E080917C0390917D030E9469066F
S1130F9067E975E080917203909173030E9469067A
S1130FA06EEC75E080917003909171030E94690664
S1130FB063E076E080917A0390917B030E94690656
S1130FC06EE076E080917E0390917F030E94690633
S1130FD069E176E080916C0390916D030E9469064B
S1130FE00E9427076FE083E00E94570508950E943E
S1130FF072032093740330937503409376035093E4
S113100077036093780370937903E0916E03F09112
S11310106F03808191818652934009F054C02091DE
S113102078033091790382E02C393807A9F4809150
S11310305E03843088F480FD04C080E00E946D0665
S113104005C0869560E08F5F0E947F0680915E03F5
S11310508F5F80935E0317C0215A3240A1F48091C0
S11310605E03882381F080FF04C081E00E946D0646
S113107005C0869560E081500E947F0680915E03E2
S1131080815080935E038091760390917703825917
S11310909240A9F50E94560620915E0330E02E5F2F
S11310A03F4F220F331F820F931FFC0180819181D8
S11310B00E9451060E945606DC011E96ED91FC9199
S11310C01F9709951CC080917603909177038D58E2
S11310D09240A9F40E945606FC01828193810E94E9
S11310E051060E945606DC011E96ED91FC911F9755
S11310F080915E03869561E070E090E00995BFE31E
S1131100EDE0F3E0B150E040F040E1F700C0000052
S113111008958DE493E09F938F930E94590A0F9052
S11311200F9008950E94F7070E94890481E693E0D6
S11311300E942C0381E693E00E94FC062FE38DE0DD
S113114093E0215080409040E1F700C000000895F2
S113115080E895E20E94EF0186E091E09093880395
S1131160809387030E94FD010E940E020E94C40422
S11311700E942B050E9442070E948E020E94800456
S11311800E9489080E949208FDCF97FB072E16F44F
S1131190009407D077FD09D00E94D90807FC05D038
S11311A03EF4909581959F4F0895709561957F4F7A
S11311B00895AA1BBB1B51E107C0AA1FBB1FA6179A
S11311C0B70710F0A61BB70B881F991F5A95A9F7EC
S11311D080959095BC01CD0108950F931F93CF93F3
S11311E0DF938230910510F482E090E0E091830374
S11311F0F091840320E030E0A0E0B0E0309719F1F2
S1131200408151810281138148175907C8F084171E
S1131210950769F4109731F012960C931297139670
S11312201C9327C0009383031093840322C02115C9
S1131230310519F04217530718F49A01BD01EF0163
S1131240DF01F801DBCF21153105F9F0281B390B3B
S11312502430310580F48A819B816115710521F068
S1131260FB019383828304C090938403809383035C
S1131270FE01329644C0FE01E20FF31F8193919365
S113128022503109398328833AC020918103309157
S11312908203232B41F42091020130910301309306
S11312A082032093810320910001309101012115D3
S11312B0310541F42DB73EB7409104015091050129
S11312C0241B350BE0918103F0918203E217F307AD
S11312D0A0F42E1B3F0B2817390778F0AC014E5FA2
S11312E05F4F2417350748F04E0F5F1F509382035A
S11312F0409381038193919302C0E0E0F0E0CF0139
S1131300DF91CF911F910F910895CF93DF930097B1
S113131009F481C0FC01329713821282A0918303E5
S1131320B0918403109781F420813181820F931F3F
S113133020918103309182032817390751F5F093E6
S11313408203E093810367C0ED0120E030E0CE1713
S1131350DF0740F44A815B819E0141155105F1F09C
S1131360EA01F5CFD383C28340815181840F951F55
S1131370C817D90759F488819981840F951F02965B
S1131380918380838A819B81938382832115310594
S113139029F4F0938403E09383033DC0E901FB83C4
S11313A0EA8349915991C40FD51FEC17FD0761F4E5
S11313B080819181840F951F0296E9019983888326
S11313C0828193819B838A83E0E0F0E012968D9181
S11313D09C911397009719F0FD01DC01F7CF8D91D3
S11313E09C9111979D012E5F3F4F820F931F209177
S11313F08103309182032817390769F4309729F45F
S1131400109284031092830302C013821282B09359
S11314108203A0938103DF91CF9108950F931F93CB
S1131420CF93DF93009731F46115710519F480E0CF
S113143090E03AC08B01EC016EE070E081E090E056
S11314400E94A20CFC01892B91F380E8838301158F
S1131450110571F01387028781E8838380918503E6
S113146090918603892B21F4F0938603E0938503FE
S11314702097C9F0D187C08783818260838380915C
S1131480870390918803892B71F4F0938803E09388
S113149087038091890390918A03892B21F4F09327
S11314A08A03E0938903CF01DF91CF911F910F91BC
S11314B00895A0E0B0E0EFE5FAE00C94850DAE01EC
S11314C04B5F5F4FFA0161917191AF018091870386
S11314D0909188030E94C10AE2E00C94A10D0F933D
S11314E01F93CF93DF93E0918703F09188032381C7
S11314F021FF1BC08C01D0E0C0E0F80181918F0175
S11315006091870370918803DB011896ED91FC913B
S11315101997882331F00995892B79F3DFEFCFEF01
S1131520ECCF8AE00995892B19F08FEF9FEF02C069
S11315308D2F9C2FDF91CF911F910F910895AEE0D5
S1131540B0E0E5EAFAE00C94830D0D891E8986E08B
S11315508C831A8309838FEF9FE79E838D83AE016B
S1131560475E5F4F6F89788DCE0101960E94C10A54
S1131570EF81F885E00FF11F10822E96E4E00C94C1
S11315809F0DABE0B0E0E7ECFAE00C94750D6C0154
S11315907B018A01FC0117821682838181FFCCC101
S11315A0CE0101963C01F6019381F70193FD8591EB
S11315B093FF81917F01882309F4BAC1853239F4FC
S11315C093FD859193FF81917F01853229F4B601C2
S11315D090E00E94DB0CE7CF912C212C312CFFE111
S11315E0F315D8F08B3279F038F4803279F0833205
S11315F0A1F4232D20611DC08D3261F0803369F484
S1131600232D216016C0832D8260382EE32DE460E3
S11316103E2E2AC0F32DF8601DC037FC2DC020EDEE
S1131620280F2A3040F08E32B9F436FC81C1232DC4
S11316302064322E19C036FE06C08AE0989E200D22
S11316401124922E11C0EAE02E9E200D1124222E88
S1131650F32DF0623F2E08C08C3621F4832D806870
S1131660382E02C0883641F4F70193FD859193FF2B
S113167081917F018111B3CF982F9F7D9554933031
S113168028F40C5F1F4F9FE399830DC0833631F01C
S1131690833771F0833509F059C021C0F801808186
S11316A089830E5F1F4F88248394912C530113C0A8
S11316B02801F2E04F0E511CF801A080B18036FEE3
S11316C003C0692D70E002C06FEF7FEFC5010E9477
S11316D0D00C4C018201F32DFF773F2E16C0280158
S11316E022E0420E511CF801A080B18036FE03C0F6
S11316F0692D70E002C06FEF7FEFC5010E94BE0C40
S11317004C01F32DF0683F2E820133FC1BC0822D67
S113171090E088169906B0F4B60180E290E00E9449
S1131720DB0C2A94F4CFF50137FC859137FE8191C7
S11317305F01B60190E00E94DB0C21102A9421E0A5
S1131740821A91088114910471F7E8C0843611F06B
S1131750893641F5F80137FE07C0608171818281C5
S113176093810C5F1F4F08C060817181072E000CAC
S1131770880B990B0E5F1F4FF32DFF763F2E97FFBB
S113178009C090958095709561957F4F8F4F9F4FBD
S1131790F0683F2E2AE030E0A3010E94170D882E46
S11317A0861845C0853731F4232D2F7EB22E2AE0CA
S11317B030E025C0932D997FB92E8F36C1F018F4EF
S11317C0883579F0B5C0803719F0883721F0B0C07A
S11317D0E92FE061BE2EB4FE0DC0FB2DF460BF2ED8
S11317E009C034FE0AC0292F2660B22E06C028E0A4
S11317F030E005C020E130E002C020E132E0F80131
S1131800B7FE07C060817181828193810C5F1F4F95
S113181006C06081718180E090E00E5F1F4FA301DC
S11318200E94170D882E8618FB2DFF773F2E36FE5B
S11318300DC0232D2E7FA22E891458F434FE0BC024
S113184032FC09C0832D8E7EA82E05C0B82CA32C93
S113185003C0B82C01C0B92CA4FE0FC0FE01E80DD2
S1131860F11D8081803321F49A2D997EA92E09C01F
S1131870A2FE06C0B394B39404C08A2D867809F0FE
S1131880B394A3FC11C0A0FE06C0B21488F4280CC3
S1131890922C9B180EC0B21460F4B60180E290E062
S11318A00E94DB0CB394F7CFB21418F42B1802C0C7
S11318B0982C212CA4FE10C0B60180E390E00E9475
S11318C0DB0CA2FE17C0A1FC03C088E790E002C0B5
S11318D088E590E0B6010CC08A2D867859F0A1FE07
S11318E002C08BE201C080E2A7FC8DE2B60190E069
S11318F00E94DB0C891438F4B60180E390E00E9466
S1131900DB0C9A94F7CF8A94F301E80DF11D8081E2
S1131910B60190E00E94DB0C8110F5CF222009F47F
S113192042CEB60180E290E00E94DB0C2A94F6CF0E
S1131930F6018681978102C08FEF9FEF2B96E2E13B
S11319400C94910D0F931F93CF93DF93869F800187
S1131950879F100D969F100D1124C8010E94ED0859
S1131960EC01009729F0A80160E070E00E94C90C26
S1131970CE01DF91CF911F910F910895FC01059045
S1131980615070400110D8F7809590958E0F9F1F7D
S11319900895DC0101C06D9341505040E0F7089573
S11319A0FC016150704001900110D8F7809590952A
S11319B08E0F9F1F08950F931F93CF93DF93FB0107
S11319C0238121FD03C08FEF9FEF2CC022FF16C09F
S11319D046815781248135814217530744F4A081FD
S11319E0B1819D012F5F3F4F318320838C932681EA
S11319F037812F5F3F4F3783268314C08B01EC015F
S1131A00FB010084F185E02D0995892BE1F6D801CD
S1131A1016968D919C911797019617969C938E9389
S1131A201697CE01DF91CF911F910F910895FA017E
S1131A30AA27283051F1203181F1E8946F936E7F09
S1131A406E5F7F4F8F4F9F4FAF4FB1E03ED0B4E0FA
S1131A503CD0670F781F891F9A1FA11D680F791F3B
S1131A608A1F911DA11D6A0F711D811D911DA11D4C
S1131A7020D009F468943F912AE0269F112430195C
S1131A80305D3193DEF6CF010895462F4770405DF7
S1131A904193B3E00FD0C9F7F6CF462F4F70405DA6
S1131AA04A3318F0495D31FD4052419302D0A9F701
S1131AB0EACFB4E0A6959795879577956795BA95FB
S1131AC0C9F700976105710508959B01AC010A2EC1
S1131AD006945795479537952795BA95C9F7620F98
S1131AE0731F841F951FA01D08952F923F924F923C
S1131AF05F926F927F928F929F92AF92BF92CF929A
S1131B00DF92EF92FF920F931F93CF93DF93CDB7A2
S1131B10DEB7CA1BDB0B0FB6F894DEBF0FBECDBF1A
S1131B2009942A88398848885F846E847D848C84EB
S1131B309B84AA84B984C884DF80EE80FD800C81F4
S1131B401B81AA81B981CE0FD11D0FB6F894DEBFD7
S10F1B500FBECDBFED010895F894FFCF47
S1131B5C00008B0320000000000200000000DF01E5
S1131B6C000000005374617274696E672053524113
S1131B7C4D20746573742E2E2E0057726974652073
S1131B8C7068617365206572726F723A206578743F
S1131B9C5F72616D5B2534645D203D2025303258C5
S1131BAC202873686F756C64206265202530325868
S1131BBC290A0052657472696576616C20706861DB
S1131BCC7365206572726F723A206578745F726106
S1131BDC6D5B2534645D203D2025303258202873FC
S1131BEC686F756C642062652025303258290A00B0
S1131BFC5352414D207465737420636F6D706C6522
S1131C0C7465642077697468200A253464206572CD
S1131C1C726F727320696E207772697465207068B4
S1131C2C61736520616E64200A25346420657272C8
S1131C3C6F727320696E2072657472696576616C5B
S1131C4C2070686173650A0A004D43503235313592
S1131C5C206973206E6F7420696E20636F6E6669E1
S1131C6C6775726174696F6E206D6F64652061664F
S1131C7C746572207265736574000A53544152542E
S1131C8C2043414E204D6573736167652070726902
S1131C9C6E742E0049443A202575200A004C656E5A
S1131CAC6774683A202575200A005061636B61677C
S1131CBC65205B25645D3A202564200A00454E446A
S1131CCC2043414E204D65737361676520707269C2
S1131CDC6E742E0A004E45555452414C004C4546E8
S1131CEC54005249474854002D2D2D00444F574E53
S1131CFC00555000506C6179696E670048533A2066
S1131D0C25640063616C6962726174650073657447
S1131D1C20646966660062796520627965005049C1
S1131D2C4E4720504F4E472047414D450051756951
S1131D3C740043616C69627261746500536574204C
S1131D4C646966666963756C747900506C617900BA
S1131D5C5365652F726573657420687300686967D1
S1131D6C6873636F72652072656365697665643A3E
S1131D7C2025640A0D004D61696E204D656E750059
S1131D8C536565204869676873636F7265005365B2
S1131D9C7420446966666963756C747900535441A4
S10F1DAC5254204E4F444520310A0D00D3
S9030000FC
