:100000000C94B4010C94D1010C94D1010C94D10145
:100010000C94D1010C94D1010C94D1010C94D10118
:100020000C94D1010C94D1010C94D1010C94D10108
:100030000C94D1010C94D1010C94D1010C94D101F8
:100040000C94D1010C94D1010C94D1010C94D101E8
:100050000C94D1010C94D1010C94D1010C94D101D8
:100060000C94D1010C94D1010C94D1010C94D101C8
:10007000000000000000000000065F5F06000000B6
:100080000007070007070000147F7F147F7F14001C
:10009000242E6B6B3A120000466630180C66620024
:1000A000307A4F5D377A48000407030000000000F3
:1000B000001C3E63410000000041633E1C00000044
:1000C000082A3E1C1C3E2A0808083E3E080800007C
:1000D00000A0E06000000000080808080808000010
:1000E00000006060000000006030180C0603010092
:1000F0003E7F594D7F3E000042427F7F40400000DE
:10010000627359496F660000226349497F360000D7
:10011000181C16137F7F1000276745457D390000A6
:100120003C7E4B4979300000036371190F070000D2
:10013000367F49497F360000064F49693F1E00005F
:1001400000006C6C0000000000A0EC6C00000000DF
:10015000081C366341000000141414141414000029
:10016000004163361C080000020351590F060000CD
:100170003E7F415D5D1F1E007C7E13137E7C000070
:10018000417F7F49497F36001C3E63414163220025
:10019000417F7F41637F1C00417F7F495D41630058
:1001A000417F7F491D0103001C3E63415173720072
:1001B0007F7F08087F7F000000417F7F41000000B3
:1001C000307040417F3F0100417F7F081C77630012
:1001D000417F7F41406070007F7F060C067F7F007B
:1001E0007F7F060C187F7F001C3E6341633E1C002E
:1001F000417F7F49090F06001E3F21717F5E00008D
:10020000417F7F19396F460026674D597B320000C8
:1002100003417F7F410300007F7F40407F7F0000DC
:100220001F3F60603F1F00007F7F3018307F7F00DE
:1002300063771C081C776300074F78784F0700002E
:100240006773594D47637100007F7F414100000093
:100250000103060C183060000041417F7F00000060
:10026000080C0603060C0800808080808080808057
:100270000000030704000000207454543C78400040
:10028000413F7F44447C3800387C44446C28000063
:10029000307848493F7F4000387C54545C18000057
:1002A000487E7F490302000098BCA4A4F87C0400A7
:1002B000417F7F08047C780000447D7D4000000081
:1002C00040C484FD7D000000417F7F10386C4400F5
:1002D00000417F7F400000007C7C0C180C7C780083
:1002E0007C7C04047C780000387C44447C3800002A
:1002F00084FCF8A4243C1800183C24A4F8FC8400D6
:10030000447C78441C180000485C54547424000059
:1003100000043E7F442400003C7C40403C7C400084
:100320001C3C60603C1C00003C7C6030607C3C00FD
:10033000446C3810386C44009CBCA0A0FC7C0000CD
:100340004C64745C4C64000008083E774141000036
:1003500000000077770000004141773E0808000068
:10036000020301030203010011241FBECFEFD4E0FA
:10037000DEBFCDBF13E0A0E0B1E0EEEEF2E102C0DF
:1003800005900D92A633B107D9F723E0A6E3B3E0B9
:1003900001C01D92AA35B207E1F70E9458070C94DC
:1003A00075090C9400005F9B03C08CB190E0089528
:1003B00080E090E008955D9BFECF8CB90895CF93C7
:1003C000C82F8A3021F48DE090E00E94DB018C2F51
:1003D00090E00E94DB0180E090E0CF91089510BC96
:1003E0008FE189B988E18AB98EE880BD63ED71E05B
:1003F0008FED91E00E94D708089585B7806885BF8A
:1004000080B7806280BF0895FA01E60FF71F8083EE
:100410000895860F971FFC018081089581B3806144
:1004200081BBEBE8F0E0808180648083EAE8F0E063
:1004300080818960808310928700109286000895E1
:1004400040E054E161E070E080E80E940402089519
:100450000F931F93CF93DF93CDB7DEB728970FB6D7
:10046000F894DEBF0FBECDBF0E94200260E074E1B1
:1004700080E090E00E94090201E413E090E0F801BE
:100480009183808360E074E180E090E00E94090243
:1004900090E0F8019383828360E074E180E090E073
:1004A0000E94090260E074E180E090E00E9409028D
:1004B00081EE94E00197F1F700C00000F80180811F
:1004C00091819C01215A31092E30310538F4118275
:1004D000108289EF91E0958384834DC0803A910525
:1004E000F0F444E6489F9001499F300D1124A3EB9E
:1004F000B2E60E94A7070024880F991F001C880FEE
:10050000991F001C892F902D84569109E1E4F3E096
:100510009183808381E092E0958384832CC09C0149
:100520002F5A310921353105F0F444E6489F9001F6
:10053000499F300D112428563244A1ECB0EC0E94A2
:10054000A7070024880F991F001C880F991F001C03
:10055000892F902DE1E4F3E09183808386E092E09F
:100560009583848308C0E1E4F3E0118210828CE07B
:1005700092E09583848380914303909144039C018E
:100580002C5931092E30310548F4E1E4F3E01382AF
:10059000128289EF91E0978386834DC08C39910553
:1005A000F0F444E6489F9001499F300D1124A3EBDD
:1005B000B2E60E94A7070024880F991F001C880F2D
:1005C000991F001C892F902D84569109E1E4F3E0D6
:1005D0009383828380E192E0978386832CC09C0181
:1005E0002A5A310926353105F0F444E6489F900136
:1005F000499F300D112428563244A1ECB0EC0E94E2
:10060000A7070024880F991F001C880F991F001C42
:10061000892F902DE1E4F3E09383828385E192E0DA
:100620009783868308C0E1E4F3E0138212828CE0B2
:1006300092E09783868388E0E1E4F3E0DE0111969F
:1006400001900D928A95E1F729813A814B815C8175
:100650006D817E818F81988528960FB6F894DEBFD4
:100660000FBECDBFDF91CF911F910F910895809361
:10067000001008958093001208958EEA0E943703B7
:1006800081EA0E9437038AED0E94370382E10E94CB
:10069000370388EC0E94370388EA0E9437038FE310
:1006A0000E94370385ED0E94370380E80E943703DC
:1006B00081E80E94370380E50E94370389ED0E949C
:1006C000370381E20E94370380E20E94370382E011
:1006D0000E9437038BED0E94370380E30E943703AB
:1006E0008DEA0E94370380E00E94370384EA0E946B
:1006F000370387EA0E9437038FEA0E94370383EDAE
:100700000E94370382E00E9437030895883018F46E
:1007100080550E9437030895CF93882354F0C82F43
:100720008F700E9437038C2F82958F70805F0E949C
:100730003703CF910895CF93C62F0E9486038C2F45
:100740000E948C03CF910895CF93DF93D0E00DC02A
:1007500060E08D2F0E949B03C0E004C080E00E94F7
:100760003A03CF5FCC23D4F7DF5FD83088F3DF9133
:10077000CF910895CF93DF93D2E00DC060E08D2F2D
:100780000E949B03C0E004C080E00E943A03CF5F58
:10079000C531D0F3DF5FD63088F3DF91CF91089574
:1007A0000E949B0388E10E943A0388E10E943A0379
:1007B0008EE70E943A038CE30E943A0388E10E948C
:1007C0003A030895CF93DF93D82FC0E011C0ED2FE7
:1007D000F0E0B097EE0FFF1FEE0FFF1FEE0FFF1FB1
:1007E000EC0FF11DE059FF4F84910E943A03CF5F57
:1007F000C83068F3DF91CF9108950F931F93CF9383
:100800008C01C0E003C00E94E203CF5FF801EC0F4F
:10081000F11D80818111F7CFCF911F910F91089524
:100820000E94A40360E283E00E949B0388E192E0BF
:100830000E94FD0308950E94A40360E283E00E94E9
:100840009B038DE192E00E94FD0308950E94A403A2
:1008500060E283E00E949B0387E292E00E94FD0336
:1008600008950E94A40360E283E00E949B0381E359
:1008700092E00E94FD0308950E94A40360E283E0D9
:100880000E949B038AE392E00E94FD0308950F9368
:100890001F93CF93DF938C01EB0181E190E00E94E5
:1008A000B607FC0111830083D383C28320E030E0CC
:1008B0000AC0F9013296EE0FFF1FE80FF91F1182EF
:1008C00010822F5F3F4F253031059CF3FC01108AC9
:1008D000DF91CF911F910F91089590933C038093E6
:1008E0003B03089580913B0390913C030895242F8E
:1008F00030E02E5F3F4F220F331F820F931FFC010A
:1009000071836083FB01408B0895FC0177876687C4
:100910000895811107C00E94BA036FE085E00E942C
:10092000D0030895813031F40E94BA036FE083E070
:100930000E94D0030895CF93DF93D82FC62F8091C4
:100940004B0390914C030E946D040E94A40368E045
:1009500081E00E949B0382E492E00E94FD03C111AA
:1009600004C0C0913603C17005C0C091360381E058
:10097000C827C170D23061F460E283E00E949B031B
:1009800081E592E00E94FD038C2F0E94890429C01A
:10099000D130A1F460E283E00E949B0386E592E0FF
:1009A0000E94FD0360E285E00E949B0380E692E0E6
:1009B0000E94FD038C2F0E94890413C060E283E033
:1009C0000E949B0388E192E00E94FD0360E285E0C3
:1009D0000E949B038FE692E00E94FD038C2F0E94F1
:1009E0008904DF91CF9108950E94A40368E081E01B
:1009F0000E949B0382E492E00E94FD0360E283E098
:100A00000E949B0388E192E00E94FD0360E285E082
:100A10000E949B038FE692E00E94FD03089560E030
:100A200070E08CE792E00E94470490934C0380931F
:100A30004B0390933C0380933B03BC0188E192E01D
:100A40000E9447049093400380933F0360914B03BF
:100A500070914C0386E892E00E94470490933E0315
:100A600080933D0360914B0370914C0386E592E0C7
:100A70000E94470490934A038093490360914B037B
:100A800070914C038AE992E00E94470490934E03D0
:100A900080934D0360914B0370914C0381E592E08C
:100AA0000E94470490933A038093390360913F0377
:100AB0007091400340E080914B0390914C030E9461
:100AC000770460913D0370913E0341E080914B03B8
:100AD00090914C030E9477046091490370914A03FE
:100AE00042E080914B0390914C030E947704609107
:100AF0004D0370914E0343E080914B0390914C0362
:100B00000E9477046091390370913A0344E0809128
:100B10004B0390914C030E9477046BE974E0809141
:100B20004B0390914C030E94850460E174E0809136
:100B30003F03909140030E9485046BE174E0809133
:100B40003D0390913E030E94850466E274E080912B
:100B5000490390914A030E94850461E374E0809107
:100B60004D0390914E030E9485046CE374E08091E4
:100B7000390390913A030E9485040E94F4046FE0C7
:100B800083E00E94D00308950E942802E1E4F3E08C
:100B90002083318342835383648375838683978361
:100BA000E0913B03F0913C03808191818C5792400E
:100BB00009F054C0209147033091480382E020316E
:100BC0003807A9F480913603843088F480FD04C08E
:100BD00080E00E94890405C0869560E08F5F0E94D6
:100BE0009B04809136038F5F8093360317C0255195
:100BF0003240A1F480913603882381F080FF04C045
:100C000081E00E94890405C0869560E081500E94C1
:100C10009B04809136038150809336038091450375
:100C20009091460386509240A9F50E94720420914B
:100C3000360330E02E5F3F4F220F331F820F931F8A
:100C4000FC01808191810E946D040E947204DC018C
:100C50001E96ED91FC911F9709951CC0809145034C
:100C60009091460381509240A9F40E947204FC01C5
:100C7000828193810E946D040E947204DC011E96A1
:100C8000ED91FC911F9780913603869561E070E0AD
:100C900090E00995BFE3EDE0F3E0B150E040F040B3
:100CA000E1F700C00000089580EB87BB81E58DB9B6
:100CB00008958FB9779BFECF8FB1089588B38F7E4B
:100CC00088BB089588B3806188BB08950E945E0642
:100CD00080EC0E9459060E9462060895CF93C82FA7
:100CE0000E945E0683E00E9459068C2F0E945906DE
:100CF00080E00E945906C82F0E9462068C2FCF9177
:100D00000895CF93DF93D82FC62F0E945E0682E00E
:100D10000E9459068D2F0E9459068C2F0E94590659
:100D20000E946206DF91CF910895CF93C82F0E9451
:100D30005E068C2F0E9459060E946206CF9108958C
:100D40001F93CF93DF93182FD62FC42F0E945E06D8
:100D500085E00E945906812F0E9459068D2F0E941E
:100D600059068C2F0E9459060E946206DF91CF918E
:100D70001F9108950E9454060E94660640E860EEA6
:100D80008FE00E94A0068EE00E946E06807E803872
:100D900031F089EA92E00E94220981E0089542E060
:100DA0006FEF8AE20E94A00641EB6FEF89E20E949A
:100DB000A00645E06FEF88E20E94A00640E060EEEA
:100DC0008FE00E94A00643E063E08BE20E94A00651
:100DD00080E00895FC01718360830895FC016283C3
:100DE0000895CF92DF92EF92FF920F931F93CF93CC
:100DF000DF937C01FC0180819181C82FC295CC0FCB
:100E0000C07E9C0136952795369527953695279572
:100E10001281662371F06130C1F40F2EF2E8DF2EEB
:100E2000F02D06E4D5E40F2EF2E4CF2EF02D81E470
:100E300017C00F2EF1E8DF2EF02D06E3D5E30F2EBD
:100E4000F2E3CF2EF02D81E30BC00F2EF4E8DF2E5E
:100E5000F02D06E5D5E50F2EF2E5CF2EF02D81E53C
:100E6000622F0E9481066C2F8C2D0E948106612FBB
:100E70008D2F0E948106C0E0D0E009C0F701EC0F81
:100E8000FD1F63818C2F800F0E9481062196812F88
:100E900090E0C817D90794F38D2D0E949506DF9135
:100EA000CF911F910F91FF90EF90DF90CF90089519
:100EB000CF93DF93CDB7DEB72B970FB6F894DEBF95
:100EC0000FBECDBF80E895E20E94EF0186E091E081
:100ED00090935703809356030E94FD010E940E02D7
:100EE0000E943D030E94A4030E940F050E94BA06BF
:100EF00061E070E0CE0101960E94EA0666E0CE0154
:100F000001960E94EE060E94C40580E090E00BC0AE
:100F1000E4E0F0E0EC0FFD1FE80FF91F282F220F8F
:100F2000220F208301962B8130E08217930784F3F0
:100F300060E0CE0101960E94F1062FE38DE093E080
:100F4000215080409040E1F700C00000DCCFA29F1C
:100F5000B001B39FC001A39F700D811D1124911D8D
:100F6000B29F700D811D1124911D08950F931F9341
:100F7000CF93DF938230910510F482E090E0E0910E
:100F80005203F091530320E030E0A0E0B0E030974E
:100F900019F1408151810281138148175907C8F026
:100FA0008417950769F4109731F012960C931297F5
:100FB00013961C9327C0009352031093530322C02F
:100FC0002115310519F04217530718F49A01BD0194
:100FD000EF01DF01F801DBCF21153105F9F0281B06
:100FE000390B2430310580F48A819B8161157105AC
:100FF00021F0FB019383828304C090935303809379
:101000005203FE01329644C0FE01E20FF31F8193AA
:10101000919322503109398328833AC0209150039B
:1010200030915103232B41F42091020130910301AF
:10103000309351032093500320910001309101011E
:101040002115310541F42DB73EB74091040150916F
:101050000501241B350BE0915003F0915103E21779
:10106000F307A0F42E1B3F0B2817390778F0AC01CB
:101070004E5F5F4F2417350748F04E0F5F1F5093A8
:101080005103409350038193919302C0E0E0F0E05C
:10109000CF01DF91CF911F910F910895CF93DF93EF
:1010A000009709F481C0FC01329713821282A0914B
:1010B0005203B0915303109781F420813181820F44
:1010C000931F20915003309151032817390751F590
:1010D000F0935103E093500367C0ED0120E030E04E
:1010E000CE17DF0740F44A815B819E01411551050F
:1010F000F1F0EA01F5CFD383C28340815181840F9F
:10110000951FC817D90759F488819981840F951FB5
:101110000296918380838A819B81938382832115A8
:10112000310529F4F0935303E09352033DC0E901E4
:10113000FB83EA8349915991C40FD51FEC17FD0732
:1011400061F480819181840F951F0296E901998352
:101150008883828193819B838A83E0E0F0E012960A
:101160008D919C911397009719F0FD01DC01F7CF49
:101170008D919C9111979D012E5F3F4F820F931F80
:1011800020915003309151032817390769F43097A3
:1011900029F4109253031092520302C01382128258
:1011A000B0935103A0935003DF91CF9108950F9313
:1011B0001F93CF93DF93009731F46115710519F4F4
:1011C00080E090E03AC08B01EC016EE070E081E0DD
:1011D00090E00E945209FC01892B91F380E88383FF
:1011E0000115110571F01387028781E883838091CF
:1011F000540390915503892B21F4F0935503E09308
:1012000054032097C9F0D187C0878381826083838C
:101210008091560390915703892B71F4F0935703F3
:10122000E09356038091580390915903892B21F440
:10123000F0935903E0935803CF01DF91CF911F91B1
:101240000F9108950F931F93CF93DF93E09156036F
:10125000F0915703238121FF1BC08C01D0E0C0E037
:10126000F80181918F016091560370915703DB0162
:101270001896ED91FC911997882331F00995892BE7
:1012800079F3DFEFCFEFECCF8AE00995892B19F0E6
:101290008FEF9FEF02C08D2F9C2FDF91CF911F9179
:1012A0000F9108950F931F93CF93DF93869F800133
:1012B000879F100D969F100D1124C8010E94B6073C
:1012C000EC01009729F0A80160E070E00E946E092F
:1012D000CE01DF91CF911F910F910895DC0101C0E4
:0E12E0006D9341505040E0F70895F894FFCF11
:1012EE0000005A0320000000000200000000DF0191
:1012FE00000000005374617274696E67205352418E
:10130E004D20746573742E2E2E00577269746520ED
:10131E007068617365206572726F723A20657874B9
:10132E005F72616D5B2534645D203D20253032583F
:10133E00202873686F756C642062652025303258E2
:10134E00290A0052657472696576616C2070686155
:10135E007365206572726F723A206578745F726180
:10136E006D5B2534645D203D202530325820287376
:10137E00686F756C642062652025303258290A002A
:10138E005352414D207465737420636F6D706C659C
:10139E007465642077697468200A25346420657248
:1013AE00726F727320696E2077726974652070682F
:1013BE0061736520616E64200A2534642065727243
:1013CE006F727320696E2072657472696576616CD6
:1013DE002070686173650A0A004E45555452414C9F
:1013EE00004C454654005249474854002D2D2D00BF
:1013FE00444F574E00555000506C61790068696734
:10140E006873636F72650063616C696272617465A3
:10141E00007365742064696666006279652062797E
:10142E00650050494E4720504F4E472047414D458D
:10143E0000517569740043616C6962726174650074
:10144E0053657420646966666963756C74790053BC
:10145E0065652F7265736574206873004D61696EE2
:10146E00204D656E75005365652F5265736574204A
:10147E004869676873636F726500536574204469C9
:10148E0066666963756C7479004D4350323531353B
:10149E00206973206E6F7420696E20636F6E6669AB
:1014AE006775726174696F6E206D6F646520616619
:1014BE00746572207265736574000A5354415254F8
:1014CE002043414E204D65737361676520707269CC
:1014DE006E742E0049443A202575200A004C656E24
:1014EE006774683A202575200A005061636B616746
:1014FE0065205B25645D3A202564200A00454E4434
:10150E002043414E204D657373616765207072698B
:06151E006E742E0A0000AD
:00000001FF
